:020000040001F9
:2078000010BD040000000000E4350400020000007235040002000000783504000200000018
:207820009435040002000000B035040002000000E435040002000000C2A004000100000008
:20784000E43504000200000016F7040001000000E435040002000000E435040002000000B9
:20786000E435040002000000E435040002000000E435040002000000E4350400020000008C
:20788000AC720400010000000872040001000000F820040002000000E43504000200000009
:2078A000E435040002000000E4350400020000001290040001000000E435040002000000C4
:2078C000E435040002000000E435040002000000E435040002000000E4350400020000002C
:2078E000E435040002000000E435040002000000E43504000200000098740400010000001A
:20790000F473040001000000E435040002000000E43504000200000074A2040001000000A2
:20792000E43504000200000026A4040001000000E435040002000000E4350400020000001B
:20794000E435040002000000E435040002000000E435040002000000E435040002000000AB
:20796000E435040002000000E435040002000000E435040002000000E4350400020000008B
:20798000E435040002000000AA71040001000000B473040001000000E4350400020000005D
:2079A000E435040002000000E435040002000000E435040002000000E4350400020000004B
:2079C000E435040002000000E435040002000000E827040002000000381504000200000001
:2079E000A0750400010000008476040001000000E075040001000000E435040002000000F5
:207A0000E435040002000000E435040002000000E435040002000000E435040002000000EA
:207A20000F2A22000E7F24000E01880000000000000020000000E00002003200000120004E
:207A4000200288000C000700E0A72F001100200011000700000020000000E0000200320036
:207A60000000020000000000AE000200020000000040DA000000FE004440A9004044210068
:207A80000000E0000300320010002000A00188004440A80000000600910188008000780034
:207AA0000000EB0015003700E280400032A0B4009101BA00E280400032A0B4009102BA00A6
:207AC000E280400032A0B4000002EB00472BDE00F507B200602CE10004003A000059EB00A4
:207AE0008301E900FDFF3E00040037006128E100010032000082EB000B00070011C3BA00FA
:207B00001101BA000604E00003003A000200E000E5FF3A0000000600F607B200960188009E
:207B200082007800F5FF37003159BA008301E9000C0032002159BA008301E9000800320056
:207B40000400E00003003A00E280400032A0B400F5FF370011D9BA008301E900FAFF3A006D
:207B60008100E800E180400032A0B40000000600F02004000200000002160400020000003B
:207B8000D222040002000000BEE80400010000007AAD040001000000DAB104000100000084
:207BA0008816040001000000BC18040001000000B0180400010000007625040001000000DC
:207BC000DC250400010000000C26040001000000482604000100000070260400010000005A
:207BE0009C26040001000000CC26040001000000CE27040001000000FE27040001000000A3
:207C00003A280400010000006E28040001000000AA28040001000000D4280400010000008A
:207C200046290400010000007A29040001000000B629040001000000E02904000100000036
:207C40002811040002000000CEE2040001000000E8E004000100000054E104000100000029
:207C60006CE104000100000016E204000100000088E204000100000098E3040001000000C6
:207C800082E30400010000006CE3040001000000348E040001000000D48B040001000000FB
:207CA000E08B040001000000328904000100000048890400010000001C8904000100000014
:207CC0004437040002000000523704000200000060370400020000006E370400020000004C
:207CE0007C370400020000003A2D040002000000542D040002000000762D0400020000002E
:207D000014880400010000002E8804000100000050880400010000006A8804000100000033
:207D20007A88040001000000C02C040002000000E02C040002000000C66D04000100000000
:207D40006E180400020000001218040002000000DE17040002000000D81804000200000076
:207D600098250400020000001C260400020000006226040002000000841F040002000000C1
:207D8000E01F040002000000FA1F0400020000002E2004000200000052EC04000100000028
:207DA000C0EB04000100000092EB04000100000038EC040001000000B0EC040001000000C7
:207DC000DCED040001000000E4EC0400010000008809040002000000080804000200000053
:207DE00048080400020000006A09040002000000C2CB0400010000002C7904000100000078
:207E0000C27B0400010000009A79040001000000DA790400010000005E7A040001000000D3
:207E20009A7A040001000000D67A040001000000167B040001000000767B04000100000048
:207E4000D07B0400010000000C7C040001000000167C040001000000527C040001000000DB
:207E6000947C040001000000DA7C0400010000001A7E040001000000B27F040001000000BF
:207E80008C37040002000000B69704000100000044980400010000005C98040001000000ED
:207EA000429E0400010000002A9E040001000000B09E040001000000289F040001000000F1
:207EC000B838040002000000E238040002000000EC38040002000000EC340400020000003C
:207EE00078EE04000100000096EE040001000000A6EE040001000000B6EE0400010000004C
:207F0000C6EE040001000000D6EE040001000000E6EE040001000000F6EE0400010000001D
:207F200006EF04000100000016EF04000100000026EF04000100000036EF040001000000F9
:207F400046EF04000100000056EF04000100000066EF04000100000076EF040001000000D9
:207F600086EF04000100000096EF040001000000A6EF040001000000B6EF040001000000B9
:207F8000C6EF040001000000D6EF040001000000E6EF040001000000F6EF04000100000099
:207FA00006F004000100000016F004000100000026F004000100000036F004000100000075
:207FC00046F004000100000056F004000100000066F004000100000076F004000100000055
:207FE00086F004000100000096F0040001000000A6F0040001000000B6F004000100000035
:20800000C6F0040001000000D6F0040001000000E6F0040001000000F6F004000100000014
:2080200006F104000100000016F104000100000026F104000100000036F1040001000000F0
:2080400046F104000100000056F104000100000066F104000100000076F1040001000000D0
:2080600086F104000100000094D0040001000000BCD0040001000000E4D0040001000000D1
:20808000F2D004000100000000D10400010000000AD104000100000014D104000100000079
:2080A00022D104000100000030D10400010000003ED10400010000005CD10400010000007C
:2080C000B4D104000100000014D2040001000000D4D20400010000002AD30400010000007E
:2080E000E835040002000000063604000200000024360400020000002E2404000200000063
:208100004C240400020000006A240400020000008824040002000000B024040002000000C9
:20812000BE240400020000006E250400020000007C250400020000008A2504000200000062
:20814000423604000200000060360400020000007E360400020000009C3604000200000073
:20816000BA36040002000000D83604000200000002800400010000001C80040001000000CD
:20818000368004000100000050800400010000006A80040001000000848004000100000057
:2081A0009E80040001000000D28004000100000006810400010000004681040001000000ED
:2081C0008681040001000000C681040001000000E081040001000000428304000100000017
:2081E00020840400010000009084040001000000A284040001000000D68404000100000033
:20820000F0840400010000000A8504000100000024850400010000005A85040001000000BF
:20822000BC8504000100000018860400010000009A86040001000000B486040001000000F1
:20824000FE860400010000004E87040001000000BC87040001000000D68704000100000011
:2082600062610400010000006C610400010000007661040001000000B4610400010000006E
:20828000F6610400010000003E62040001000000A062040001000000CA64040001000000A3
:2082A0001A650400010000009665040001000000727E040001000000A87E0400010000001A
:2082C000107F040001000000467F0400010000007C7F0400010000009E3704000200000065
:2082E00016380400020000004C3804000200000082380400020000003C3504000200000069
:208300006E1904000200000088D3040001000000BED3040001000000F4D30400010000000E
:2083200060D40400010000002AD404000100000096D4040001000000CCD4040001000000ED
:2083400002D5040001000000CC2404000200000002250400020000003825040002000000BB
:208360002E860400010000006486040001000000A8650400010000001683040001000000A5
:20838000D482040001000000F483040001000000B2830400010000009085040001000000B2
:2083A000EC85040001000000CC77040001000000847D040001000000145C04000100000084
:2083C0006C5C040001000000DC5C040001000000A05C040001000000C65D0400010000006A
:2083E0003E5E04000100000002610400010000008061040001000000C26104000100000066
:2084000004620400010000005462040001000000C263040001000000E064040001000000C3
:2084200032650400010000005665040001000000621A040002000000CA0504000200000089
:2084400024270400020000006E2704000200000076270400020000007E27040002000000E2
:20846000E02704000200000086270400020000008E270400020000009A27040002000000BA
:20848000A227040002000000AA27040002000000B427040002000000BE270400020000006A
:2084A000C82704000200000066A1040001000000C8A1040001000000E6A1040001000000C1
:2084C00020A0040001000000B0A004000100000018A30400010000007AA3040001000000A0
:2084E00098A3040001000000FCA104000100000062A2040001000000CAA40400010000001E
:2085000030A50400010000004EA5040001000000AEA304000100000014A404000100000076
:208520002E330400020000009A300400020000003EE30400000000004AE0040000000000B1
:2085400038E10400000000006ADF040000000000A8E10400000000009EE0040000000000A2
:2085600016E2040000000000DEDF04000000000026E4040000000000D4E404000000000074
:20858000DAEA04000000000054E6040000000000E4E6040000000000E4E804000000000037
:2085A00060EE0400000000000EF204000000000056FE0400000000000E47040001000000B3
:2085C000CC4A040001000000384F0400010000000647040001000000DA4F04000100000074
:2085E0006250040001000000CE50040001000000EA50040001000000065104000100000006
:20860000225104000100000036510400010000005651040001000000CE5104000100000086
:20862000D651040001000000F2070400010000003A0804000100000070060400010000004E
:208640009C14040001000000F411040001000000C007040001000000EE1304000100000089
:20866000261404000100000048140400010000005A140400010000006C1404000100000062
:208680007E14040001000000C014040001000000D214040001000000DC140400010000008A
:2086A000E8140400010000009015040001000000C215040001000000D61504000100000043
:2086C0009E3B0400010000006844040001000000AE45040001000000D844040001000000F2
:2086E000E0440400010000003C450400010000007045040001000000824504000100000045
:208700009445040001000000A445040001000000B645040001000000C8450400010000007B
:208720006845040001000000D245040001000000DC45040001000000EA4504000100000011
:208740006A29040002000000F829040002000000A829040002000000082A0400020000004A
:208760000A550400010000006655040001000000D255040001000000845A040001000000C6
:2087800002550400010000009C54040001000000F854040001000000485B0400010000008F
:2087A0008C5B040001000000BA5B040001000000E85B04000100000076540400010000009C
:2087C0009454040001000000785B040001000000CAD60400010000008AD8040001000000C8
:2087E000D4D8040001000000DCD8040001000000E8D8040001000000F8D804000100000075
:2088000002D90400010000000CD904000100000014D904000100000060D90400010000005E
:2088200056D90400010000006CD90400010000007CD904000100000086D9040001000000FC
:2088400090D90400010000002ED904000100000036D90400010000003ED90400010000006E
:2088600046D90400010000004ED90400010000001E29040002000000A84604000100000068
:20888000FC4504000100000026460400010000007A460400010000005A46040001000000B7
:2088A000D6FF0400000000001CFF0400000000007AFF040000000000AAFF04000000000096
:2088C000CAFF04000000000074150400010000006852040001000000E45104000100000044
:2088E00006520400010000003C520400010000005C52040001000000E42B040002000000C0
:20890000E639040001000000A43A040001000000343A040001000000EE39040001000000B1
:20892000A82E040002000000C4DC040001000000CE0B040002000000F00B040002000000D6
:20894000060C0400020000001E0C040002000000400C040002000000560C04000200000015
:208960006E0C040002000000900C040002000000A60C040002000000D42F04000200000014
:208980000E3004000200000030F20400010000002AF3040001000000462A040002000000D4
:2089A00054300400020000007030040002000000C02A040002000000142A04000200000053
:2089C000682A0400020000004E1D04000200000002BF040001000000CABD0400010000003C
:2089E00084AA040001000000DEA6040001000000C2A6040001000000607104000100000078
:208A000020730400010000005A730400010000007E730400010000008A73040001000000F4
:208A200092730400010000009873040001000000A0730400010000000C750400010000007E
:208A400046750400010000006A7504000100000076750400010000007E750400010000008A
:208A600084750400010000008C75040001000000F8760400010000003277040001000000D1
:208A8000567704000100000062770400010000006A77040001000000707704000100000054
:208AA00078770400010000008C3104000200000042310400020000005C31040002000000F3
:208AC00018E504000100000070E5040001000000681304000200000056130400020000004A
:208AE0002E140400020000009600040002000000FA1B04000200000003F0A200889FBE00FD
:208B00008A9FBE008C1F780071010700780133006450E1004F0032006420E1005200320027
:208B200003826C0007003B000905D0000306D000820F54000C065D00020039000200320088
:208B400089017800030678008582550004003D000003FD008103FD008502EA008B854200B1
:208B6000840F720002003B0060001000E08018006011B8000005EB007A28E1000A003900EC
:208B800006007800C75DDD00F707B200878075002D003700828171000A0178006105600009
:208BA0008180D1000080D3008502E900F9FF3B00060440008784480002003B00600414009B
:208BC000E0841C000988A300070032008A81710082817100610164008904D1000884D30035
:208BE0008B05E800170037000978A30013003A000B00E000130034008B05E9000804440043
:208C000089844C000A4474000978A3000D003A000B00E000070034008B05E90008044400DF
:208C200089844C0001003A000B0020000978A300F7FF32000001EB00020037008281710090
:208C40000A017800E70007000CF0A70001F0A000300137006420E10002003A00838F6C00E8
:208C6000300133000801BE000200BE0029013700889FBE008A9FBE008C1F7800140107009D
:208C80001B01330003866C006450E1002E0032006420E100330032006150E1002F003200DE
:208CA0006120E1003100320085855500EB07B000090020000804200005003700080444000D
:208CC00089844C000A0031000603430087834B000001530081815B00F8FF33000203BE00C1
:208CE0000800A0000804440089844C00F6FF3900C639DD00830173000100320013002000BC
:208D00008904D1000884D3000998A300050032000800A7000300A0008904D1000884D3000C
:208D20008B05E8008904D1000884D3000001EB000281D200AB00070001F0A1000CF0A700D6
:208D400001F0A000F30037006420E100F50032000801BE000200BE00F7FF37006120E100B6
:208D6000F00032006000B800F3FF37000000200001F82700F0FF3700839F68000100E000BF
:208D800002003D0060001000E08018000300E00002003D0060011100E08119007E01070018
:208DA0004F00E00002003B0060001000E080180000000600889FBE008A9FBE008C9FBE00A4
:208DC0000004BE00AD0007000800BE006420E10048003E005500320072212700132B2400C9
:208DE0005800070047003C000800BE00C2EC2800E32C2C0051000700470035000800BE0020
:208E000001F0A10002002000033823004B000700430035000800BE00B2A32A0083FB230090
:208E2000F40007000200200003F0230001F0A70003F0A00031FF0700440007000005BE008F
:208E40006300070001F0A2000006BE000200280013F32300E70007000801BE0027FF07001C
:208E6000809FBE000C00BE0032082800E3952B00E00007004F01BE0020FF07000006BE0067
:208E80000001BE00DB000700809FBE004241250083B82300D70007000200200003E8230040
:208EA00016FF07000C01BE00D20007000006BE004F00BE00F2F92B00C3D42300CD0007007D
:208EC0000200200003F023000CFF07000C01BE0009FF07000001BE000C00BE0064FF07007B
:208EE0000200200003F0230004FF0700610145008F0007004F06BE004F05BE004F04BE00BD
:208F00000000060001F827000000200022022000525E8800F7FF37006000B800FBFF370019
:208F200001F8230000002000F2FF370009F8A300F0FF32006000B800EEFF37001400200098
:208F400028013700F4FF2F00260137000001BE004A0007000470A70003F0A1006509B10053
:208F6000160032000D0035006828E10006003500F0FF2F00F1FF27000300E00013003B0055
:208F8000010028000000050000004000818048008502E900FCFF3A0008003700F88F42006D
:208FA00002003C008000EB00000005008100D1000080D3008502E800FCFF3A000300E000D7
:208FC00002003B0060001000E0801800000006004F89DE00820178001D0137006011B80037
:208FE0002B01370081002000618055000B003D000B00200061FE2F000100E1001D00340003
:2090000082817100610164008904D1000884D3000000E800FAFF3A007100200061006400E8
:2090200003007000020060000900320061044400E0844C000988A500050032008B05E800E2
:209040006808E10002003A008904D1000884D300F20F20000258E10005003D00C75DDD0027
:20906000F907B2008980750008007800000006000BF827008B00780000000500C70ADE0059
:20908000F107B200F50FB20008003200E1CF4200020032000170A00024000500810F7000D6
:2090A000010032000408050044000500810F700002003A00140005008502E900000040001E
:2090C00081C04800FCFF3B000170A000240005000004BE00E9FF07000003BE000405BE005E
:2090E0000200BE00E5FF0700844F7500000006000200BE006450E100050036006420E10082
:20910000020036000968A30001003A000800BE000160A0004F0678004F05BE004F04BE0011
:2091200000000600F0FF2F00F1FF2700F9FF37000003BE00D1FF07006220E1000200320096
:209140000600BE000000060085024100E30F20000328E10005003C00A3FE2F000328E10042
:2091600007003D000500200001003700F50F200020022000505E88006000B800080037005B
:20918000130020008381520005003D008100D1000080D3008301E800FCFF3A000500200099
:2091A000C72ADD00F107B2008580700007F0A70001F0A00000000600811F78000100E00094
:2091C00002003D0060001000E08018000300E00002003D0060011100E08119007E000700D5
:2091E0004F00E00002003B0060001000E080180000000600889FBE008A9FBE008C1F780026
:20920000B3FF0700BAFF330003866C006450E100240032006420E100270032006150E10079
:20922000220032006120E100210032008B854200EB07B1000134B800003AB8000804420003
:2092400089844A00013AB8000030B8008880400009014A0004003300000040008180480080
:20926000020149008B05E900C909DD00830170000100320013002000C814DE004814DD002D
:209280004709DE001200B200C808DE000884700054FF070001F0A1000CF0A70001F0A00012
:2092A0009CFF37006120E1009EFF32000801BE000200BE00F7FF37006150E100FCFF3A0030
:2092C00098FF3700889FBE008A9FBE008C1F78000004BE0069FF07000478A30026003A0021
:2092E0006120E1002500320009F8A30025003A006420E10021003200F507B1000508A3009D
:209300000200320000004000818048006044B8000310200002002000000040008180480056
:209320000805440089854C000A0541008B8549000A0550008B855800030033000A00BE0014
:2093400002047400838474008301D1000281D300830F7100F0FF3A008904D1000884D30084
:209360006001490082017800C1ADDE00FB07B0001CFF070067FF37000960A0000800BE00BC
:2093800064FF370012022000525E8800F0FF2F00F1FF27005FFF37006022B800060220009B
:2093A0000000D0008180D2000482D2008582D2000000A0000202520083825A000300310050
:2093C0000202420083824A000000A1000603E900F3FF3A0000000600EFFF07000400BE007C
:2093E00000000600889FBE008A9FBE00841F780037FF07004F00780011003300F0FF2F001A
:20940000838F6C0006003B00040565000A00A7000800370009F0A600100020000800370021
:20942000820F5400838F5C00030039001000200001003E000000200009F0A7000000EA0084
:209440004F05BE004F04BE000000E00000000600881F7800030478000300E00007003D003E
:2094600060001000E080180060011900E081190002003B0001F02D00030037000400070070
:2094800008F0A70001F0A0004F04780000000600889FBE008A9FBE00008270000402710096
:2094A00004827100260032000004BE000200BE006011B8006B092000950220000182CF0015
:2094C0000A0039000541B1000082CF00070039000541B1000982CF00040039000541B1003C
:2094E0000882CF00010039000541B10005425200120032000A003B00828171006101640086
:209500008100D1000080D3008984D3000884D3008B05E8000442E800F7FF3A000700370053
:209520000804440089844C0000004800818048008B05E9000442E900F9FF3A00A9FE070069
:209540004F05BE004F04BE0000000600E68747008E1F7800D0BF9F00E1BF9F000E00370057
:209560005FBA970014407800EFB99700934078000201E900814F5000040032000080FB0028
:209580008180FB00010050000600370066875700041FE800030FE8000200E000F0FF3A00ED
:2095A0000000EB004F0778006F00B100000006008001780002003700B15978000201E9002C
:2095C0000200E000FCFF3A00000006008001780002003700815978000201E9000200E0001C
:2095E000FCFF3A0000000600B041780031C1510002003A000304E000FBFF3A000200FB0030
:2096000000000600800078003104E000FEFF3A000080EA00008040000000060000000000D0
:20962000B50200004B0400006A05000049060000000700009A0700001F08000095080000FA
:20964000FF0800005E090000B5090000050A00004F0A0000940A0000D50A0000110B0000DD
:209660004A0B0000800B0000B40B0000E50B0000130C00003F0C00006A0C0000930C0000DC
:20968000BA0C0000E00C0000040D0000270D0000490D00006A0D00008A0D0000A90D0000B9
:2096A000C60D0000E30D0000000E00001B0E0000360E0000500E0000690E0000820E000007
:2096C0009A0E0000B10E0000C80E0000DF0E0000F50E00000A0F00001F0F0000340F0000D3
:2096E000480F00005C0F00006F0F0000820F0000950F0000A70F0000B90F0000CB0F00009D
:20970000DC0F0000EE0F0000FE0F00000F1000001F1000002F1000003F1000004E1000001A
:209720005E1000006D1000007C1000008A10000098100000A7100000B5100000C210000022
:20974000D0100000DD100000EB100000F810000005110000111100001E1100002A11000097
:2097600037110000431100004F1100005B11000066110000721100007D110000891100005F
:20978000941100009F110000AA110000B5110000BF110000CA110000D4110000DF11000073
:2097A000E9110000F3110000FD11000007120000111200001B120000241200002E120000BE
:2097C00037120000411200004A120000531200005C120000661200006E120000771200003D
:2097E0008012000089120000921200009A120000A3120000AB120000B3120000BC120000E7
:20980000C4120000CC120000D4120000DC120000E4120000EC120000F4120000FC120000B8
:20982000041300000B130000131300001A13000022130000291300003113000038130000A0
:209840003F130000461300004E130000551300005C130000631300006A13000071130000AE
:20986000781300007E130000851300008C1300009313000099130000A0130000A6130000D7
:20988000AD130000B3130000BA130000C0130000C7130000CD130000D3130000D913000016
:2098A000E0130000E6130000EC130000F2130000F8130000FE130000041400000A14000066
:2098C00010140000161400001B14000021140000271400002D1400003214000038140000C8
:2098E0003E14000043140000491400004E14000054140000591400005F1400006414000040
:209900006A1400006F140000741400007A1400007F14000084140000891400008F140000C5
:2099200094140000991400009E140000A3140000A8140000AD140000B2140000B71400005B
:20994000BC140000C1140000C6140000CB140000D0140000D5140000DA140000DE140000FC
:20996000E3140000E8140000ED140000F1140000F6140000FB140000FF14000004150000A9
:20998000081500000D15000012150000161500001B1500001F15000024150000281500005C
:2099A0002D15000031150000351500003A1500003E15000042150000471500004B15000020
:2099C0004F15000054150000581500005C1500006015000064150000691500006D150000EE
:2099E0007115000075150000791500007D1500008115000085150000891500008D150000C7
:209A00009115000095150000991500009D150000A1150000A5150000A9150000AD150000A6
:209A2000B1150000B5150000B9150000BD150000C0150000C4150000C8150000CC1500008A
:209A4000CF150000D3150000D7150000DB150000DE150000E2150000E6150000E91500007B
:209A6000ED150000F1150000F4150000F8150000FC150000FF15000003160000061600006E
:209A80000A1600000D1600001116000014160000181600001B1600001F1600002216000066
:209AA00026160000291600002D1600003016000034160000371600003A1600003E16000067
:209AC0004116000044160000481600004B1600004E16000052160000551600005816000071
:209AE0005C1600005F1600006216000065160000691600006C1600006F160000721600007E
:209B000075160000791600007C1600007F1600008216000085160000881600008B16000092
:209B20008F1600009216000095160000981600009B1600009E160000A1160000A4160000A9
:209B4000A7160000AA160000AD160000B0160000B3160000B6160000B9160000BC160000C9
:209B6000BF160000C2160000C5160000C8160000CB160000CE160000D1160000D4160000E9
:209B8000D6160000D9160000DC160000DF160000E2160000E5160000E8160000EA16000012
:209BA000ED160000F0160000F3160000F6160000F9160000FB160000FE160000011700003B
:209BC0000417000006170000091700000C1700000F17000011170000141700001717000063
:209BE0001A1700001C1700001F1700002217000024170000271700002A1700002C17000095
:209C00002F170000321700003417000037170000391700003C1700003F17000041170000CB
:209C20004417000046170000491700004C1700004E17000051170000531700005617000005
:209C4000581700005B1700005D170000601700006217000065170000671700006A17000044
:209C60006C1700006F170000711700007417000076170000791700007B1700007E17000084
:209C8000801700008317000085170000871700008A1700008C1700008F17000091170000C7
:209CA0009317000096170000981700009B1700009D1700009F170000A2170000A41700000E
:209CC000A6170000A9170000AB170000AD170000B0170000B2170000B4170000B717000058
:209CE000B9170000BB170000BE170000C0170000C2170000C4170000C7170000C9170000A4
:209D0000CB170000CE170000D0170000D2170000D4170000D7170000D9170000DB170000F1
:209D2000DD170000DF170000E2170000E4170000E6170000E8170000EA170000ED17000044
:209D4000EF170000F1170000F3170000F5170000F8170000FA170000FC170000FE17000097
:209D600000180000021800000418000007180000091800000B1800000D1800000F180000E6
:209D8000111800001318000015180000181800001A1800001C1800001E180000201800003E
:209DA000221800002418000026180000281800002A1800002C1800002E180000301800009B
:209DC000321800003418000036180000391800003B1800003D1800003F18000041180000F6
:209DE000431800004518000047180000491800004B1800004D1800004F1800005118000053
:209E0000531800005518000056180000581800005A1800005C1800005E18000060180000B8
:209E2000621800006418000066180000681800006A1800006C1800006E180000701800001A
:209E400072180000741800007518000077180000791800007B1800007D1800007F18000080
:209E600081180000831800008518000087180000881800008A1800008C1800008E180000E6
:209E80009018000092180000941800009518000097180000991800009B1800009D1800004F
:209EA0009F180000A0180000A2180000A4180000A6180000A8180000AA180000AB180000BA
:209EC000AD180000AF180000B1180000B3180000B4180000B6180000B8180000BA18000026
:209EE000BC180000BD180000BF180000C1180000C3180000C4180000C6180000C818000094
:209F0000CA180000CB180000CD180000CF180000D1180000D2180000D4180000D618000003
:209F2000D8180000D9180000DB180000DD180000DE180000E0180000E2180000E418000074
:209F4000E5180000E7180000E9180000EA180000EC180000EE180000F0180000F1180000E7
:209F6000F3180000F5180000F6180000F8180000FA180000FB180000FD180000FF1800005A
:209F80000019000002190000041900000519000007190000091900000A1900000C190000C8
:209FA0000D1900000F19000011190000121900001419000016190000171900001919000040
:209FC0001A1900001C1900001E1900001F19000021190000231900002419000026190000B8
:209FE00027190000291900002B1900002C1900002E1900002F190000311900003219000032
:20A00000341900003619000037190000391900003A1900003C1900003D1900003F190000AC
:20A020004119000042190000441900004519000047190000481900004A1900004B19000028
:20A040004D1900004F190000501900005219000053190000551900005619000058190000A4
:20A06000591900005B1900005C1900005E1900005F19000061190000621900006419000024
:20A080006519000067190000681900006A1900006B1900006D1900006E19000070190000A4
:20A0A0007119000073190000741900007619000077190000791900007A1900007C19000024
:20A0C0007D1900007E190000801900008119000083190000841900008619000087190000A8
:20A0E000891900008A1900008C1900008D1900008E1900009019000091190000931900002A
:20A10000941900009619000097190000991900009A1900009B1900009D1900009E190000AD
:20A12000A0190000A1190000A2190000A4190000A5190000A7190000A8190000A919000033
:20A14000AB190000AC190000AE190000AF190000B0190000B2190000B3190000B5190000B9
:20A16000B6190000B7190000B9190000BA190000BC190000BD190000BE190000C019000040
:20A18000C1190000C2190000C4190000C5190000C7190000C8190000C9190000CB190000C8
:20A1A000CC190000CD190000CF190000D0190000D1190000D3190000D4190000D519000052
:20A1C000D7190000D8190000D9190000DB190000DC190000DD190000DF190000E0190000DC
:20A1E000E1190000E3190000E4190000E5190000E7190000E8190000E9190000EB19000067
:20A20000EC190000ED190000EF190000F0190000F1190000F2190000F4190000F5190000F2
:20A22000F6190000F8190000F9190000FA190000FC190000FD190000FE190000FF1900007F
:20A24000011A0000021A0000031A0000051A0000061A0000071A0000081A00000A1A000004
:20A260000B1A00000C1A00000D1A00000F1A0000101A0000111A0000131A0000141A000093
:20A28000151A0000161A0000181A0000191A00001A1A00001B1A00001D1A00000101000058
:20A2A000FCBE00000102000000BF00000103000004BF00000105000008BF00000107000086
:20A2C0000CBF00000109000010BF0000010B000014BF0000010D000018BF0000010F000006
:20A2E0001CBF00000111000020BF00000113000024BF00000114000028BF00000116000088
:20A300002CBF00000118000030BF00000119000034BF00000190000038BF000001F00000C4
:20A320003CBF00000201000040BF00000301000044BF00000302000048BF00000303000007
:20A340004CBF00000304000050BF00000305000054BF00000306000058BF00000308000096
:20A360005CBF00002001000060BF00002002000064BF00002101000068BF000025010000CE
:20A380006CBF00003001000070BF00003010000074BF00003011000078BF00003012000005
:20A3A0007CBF00003013000080BF00003014000084BF00003015000088BF00003016000087
:20A3C0008CBF00003017000090BF00003018000094BF00003019000098BF0000301A000017
:20A3E0009CBF0000301B0000A0BF0000301C0000A4BF0000301D0000A8BF0000301E0000A7
:20A40000ACBF0000301F0000B0BF000030200000B4BF000030210000B8BF00003022000036
:20A42000BCBF000030230000C0BF000030240000C4BF000030250000C8BF000030260000C6
:20A44000CCBF000030270000D0BF000030280000D4BF000030290000D8BF0000302A000056
:20A46000DCBF0000302B0000E0BF0000302C0000E4BF0000302D0000E8BF0000302E0000E6
:20A48000ECBF0000302F0000F0BF000030300000F4BF000030310000F8BF00003032000076
:20A4A000FCBF00003033000000C000003034000004C000003035000008C000003036000003
:20A4C0000CC000003037000010C000003038000014C000003039000018C00000303A000092
:20A4E0001CC00000303B000020C00000303C000024C00000303D000028C00000303E000022
:20A500002CC00000303F000030C000008001000034C000008002000038C00000800300007E
:20A520003CC000008004000040C000008005000044C000008006000048C0000080400000C4
:20A540004CC000008041000050C000008042000054C000008050000058C00000805300008D
:20A560005CC000008054000060C000008060000064C000008061000068C0000080700000CE
:20A580006CC000008101000070C000008102000074C000008103000078C0000082010000E7
:20A5A0007CC000008202000080C000008203000084C000008204000088C00000820500007D
:20A5C0008CC000008206000090C000008240000094C000008241000098C000008242000062
:20A5E0009CC0000083010000A0C0000083020000A4C0000083030000A8C0000084010000BF
:20A60000ACC0000084020000B0C0000084030000B4C00000FE010000B8C00000FE02000066
:20A62000BCC00000FE030000C0C00000FE040000C4C00000FE050000C8C00000FE06000008
:20A64000CCC00000FE070000D0C00000FE090000D4C00000FE0B0000D8C00000FE0C000093
:20A66000DCC00000FE0D0000E0C00000FE0E0000E4C00000FE0F0000E8C00000FE1100001F
:20A68000ECC00000FE120000F0C00000FE130000F4C00000FE140000F8C00000FE160000AB
:20A6A000FCC00000FE17000000C10000FE18000004C10000FE19000008C10000FE1B000034
:20A6C0000CC10000FE22000010C10000FE23000014C10000FE1D000018C10000FE1E0000B6
:20A6E0001CC10000FE1F000020C10000FE20000024C10000FEE0000028C10000FEE10000D6
:20A700002CC10000FF01000030C10000FF02000034C10000FF03000038C10000FF1000005B
:20A720003CC10000FF11000040C10000FF12000044C10000FF13000048C10000FF140000C7
:20A740004CC10000FF15000050C10000FF20000054C1000000000000000000000180000012
:20A7600058C10000018100005CC100000182000060C100000183000064C100000191000042
:20A7800068C10000028000006CC100002280000070C100002380000074C100002480000092
:20A7A00078C10000258000007CC100002680000080C100008080000084C100008081000051
:20A7C00088C10000808200008CC100008090000090C100008083000094C100008084000024
:20A7E00098C10000808500009CC1000080860000A0C1000082800000A4C1000082810000CD
:20A80000A8C1000082820000ACC10000FE800000B0C10000FEF00000B4C10000FFA000006D
:20A82000B8C100000000000000000000414200000D000000414300000D00000041440000F9
:20A840000D000000414500000D000000414700000D000000414900000D000000414A0000A1
:20A860000D000000415100000D000000415200000D000000415300000D000000413000007A
:20A880000D000000413100000D000000413200000D000000413300000D00000041340000B6
:20A8A0000D000000413500000D000000413600000D000000413700000D0000004138000086
:20A8C0000D000000413900000D0000005354000042200000303000000D00000053540000C7
:20A8E00042200000303100000D0000005354000042200000303200000D0000005354000069
:20A9000042200000303300000D0000005354000042200000303400000D0000005354000044
:20A9200042200000303500000D0000005354000042200000303600000D0000005354000020
:20A9400042200000303700000D0000005354000042200000303800000D00000053540000FC
:20A9600042200000303900000D0000005354000042200000313300000D00000053540000DE
:20A9800042200000313400000D0000005354000042200000313500000D00000053540000C0
:20A9A00042200000313600000D0000005354000042200000313700000D000000535400009C
:20A9C00042200000313800000D0000005354000042200000313900000D0000005354000078
:20A9E00042200000323000000D0000005354000042200000323100000D0000005354000066
:20AA000042200000323200000D0000005354000042200000323300000D0000005354000041
:20AA200042200000323400000D0000005354000042200000323500000D000000535400001D
:20AA400042200000323600000D0000005354000042200000323700000D00000053540000F9
:20AA600042200000323800000D0000005354000042200000323900000D00000053540000D5
:20AA800042200000333000000D0000000100000016D40000020000001AD400000300000006
:20AAA0001ED400000400000022D400000500000026D40000060000002AD4000007000000A0
:20AAC0002ED400000800000032D400000900000036D400000A0000003AD400000B00000030
:20AAE0003ED400000C00000042D400000D00000046D400000E0000004AD400000F000000C0
:20AB00004ED400001000000052D400001100000056D40000120000005AD40000130000004F
:20AB20005ED400001400000062D400001500000066D40000160000006ED4000017000000DB
:20AB400076D40000180000007ED400001900000086D400001A0000008ED400001B00000037
:20AB600096D400001C0000009ED400001D000000A6D400001E000000AED400001F00000087
:20AB8000B6D4000020000000BED4000021000000C6D4000022000000CED4000023000000D7
:20ABA000D6D4000024000000DED4000025000000E6D4000026000000EED400002700000027
:20ABC000F6D4000028000000FED400002900000006D500002A0000000ED500002B00000075
:20ABE00016D500002C0000001ED500002D00000026D500002E0000002ED500002F000000C3
:20AC000036D50000300000003ED50000010000000100000060BE00000100000002000000C3
:20AC200064BE0000010000000300000068BE000001000000040000006CBE00000100000098
:20AC40000500000070BE0000020000000300000074BE0000020000000100000078BE000051
:20AC600002000000020000007CBE00001E0000000500000080BE00001E0000000C0000000B
:20AC800080BE00001E0000000400000080BE00001E0000000600000080BE00001E00000096
:20ACA0000300000080BE00001E0000000A00000080BE00001E0000000700000080BE00008A
:20ACC0001E0000000B00000080BE00001E0000000100000080BE00001E000000080000008A
:20ACE00080BE00001E0000000200000080BE00001E0000000900000080BE0000170000003C
:20AD00000100000080BE0000170000000200000084BE0000170000000300000084BE00003D
:20AD2000170000000500000084BE0000170000000600000080BE000017000000070000003C
:20AD400084BE0000170000000800000084BE0000170000000900000080BE000017000000DB
:20AD60001900000084BE0000170000001A00000084BE0000170000001B00000084BE000091
:20AD8000170000001C00000084BE0000170000001D00000084BE0000170000001E00000093
:20ADA00084BE0000170000001F00000084BE0000170000001100000084BE00001700000058
:20ADC0001200000084BE0000170000001300000084BE0000170000001400000084BE000046
:20ADE000170000001500000084BE0000170000001600000084BE0000170000001700000048
:20AE000084BE0000170000001800000084BE0000170000002800000084BE000017000000E7
:20AE20002900000084BE0000170000002A00000084BE0000170000002E00000084BE00009D
:20AE4000170000002C00000084BE0000170000002000000084BE00001700000021000000BC
:20AE600084BE0000170000002200000084BE0000170000002300000084BE00001700000082
:20AE80002400000084BE0000170000002500000084BE0000170000002600000084BE00004F
:20AEA000170000002700000084BE0000030000000600000084BE00000300000003000000C1
:20AEC00084BE0000030000000400000084BE0000030000000700000084BE00000300000098
:20AEE0000A00000084BE0000030000002000000084BE0000000000000000000000000000A1
:20AF0000030000000900000088BE0000170000000400000088BE0000170000002B0000003C
:20AF200088BE0000170000002D00000088BE000003000000020000008CBE000015000000DD
:20AF40000100000090BE0000150000000200000090BE00000000000000000000000000003D
:20AF6000DCC2000000000000E0C2000000000000E4C20000E8C20000ECC20000F0C20000E1
:20AF8000F4C20000F8C20000FCC2000000C3000000000000000000000000000000000000C0
:20AFA000000000000000000004C3000008C300000CC3000000000000000000000000000030
:20AFC00010C3000000000000000000000000000014C3000018C300001CC3000020C300002A
:20AFE00024C3000028C300002CC3000030C3000034C3000038C300003CC3000040C30000A9
:20B0000000000000000000000000000000000000000000000000000044C3000048C300001E
:20B020004CC30000000000000000000050C3000054C3000058C300005CC30000000000009D
:20B0400060C300000000000064C3000068C30000000000006CC3000070C3000074C30000E2
:20B0600078C300007CC3000080C3000084C3000000000000000000000000000000000000CC
:20B08000000000000000000088C300008CC3000090C30000000000000000000094C300006C
:20B0A00098C3000000000000000000009CC30000A0C3000000000000000000000000000073
:20B0C000000000000000000000000000000000000000000000000000000000000000000070
:20B0E000A4C30000A8C300000000000000000000000000000000000000000000000000007E
:20B100000000000000000000000000000000000000000000ACC300000000000000000000C0
:20B12000B0C30000B4C30000B8C3000000000000BCC30000C0C300000000000000000000A8
:20B1400000000000000000000000000000000000C4C30000C8C30000CCC30000D0C30000BB
:20B16000D4C30000D8C30000000000000000000000000000DCC30000E0C30000000000005B
:20B1800000000000E4C300000000000000000000E8C3000000000000ECC3000000000000AE
:20B1A00000000000F0C30000F4C30000F8C30000FCC3000000C4000004C4000008C4000053
:20B1C0000CC4000010C4000014C4000018C400001CC4000020C4000024C4000028C400007F
:20B1E0002CC4000030C4000034C40000000000000000000000000000000000000000000073
:20B2000000000000000000000000000000000000000000000000000000000000000000002E
:20B2200000000000000000000000000000000000000000000000000000000000000000000E
:20B240000000000000000000000000000000000000000000000000000000000000000000EE
:20B26000000000000000000000000000000000000300000020D800000500000090D8000066
:20B2800007000000E8D700000900000058D800000E000000B0D7000000000000C8D800007A
:20B2A0000F00000000D90000000000000000000001000000010000000000000001000000A3
:20B2C000020000000000000001000000030000000000000001000000040000000000000063
:20B2E0000100000005000000CCC400000200000003000000000000000200000001000000B0
:20B30000D0C400000200000002000000D4C400001E00000005000000000000001E000000BC
:20B320000C000000000000001E00000004000000000000001E0000000600000000000000BB
:20B340001E00000003000000000000001E0000000A000000000000001E000000070000007F
:20B36000000000001E0000000B000000000000001E00000001000000000000001E00000067
:20B3800008000000000000001E00000002000000000000001E00000009000000000000005E
:20B3A0001700000001000000000000001700000002000000D8C400001700000003000000A6
:20B3C000D8C400001700000004000000D8C400001700000005000000D8C40000170000004B
:20B3E00006000000000000001700000007000000D8C400001700000008000000D8C40000D2
:20B400001700000009000000000000001700000019000000D8C40000170000001A0000000F
:20B42000D8C40000170000001B000000D8C40000170000001C000000D8C4000017000000BC
:20B440001D000000D8C40000170000001E000000D8C40000170000001F000000D8C4000090
:20B460001700000011000000D8C400001700000012000000D8C40000170000001300000019
:20B48000D8C400001700000014000000D8C400001700000015000000D8C40000170000006A
:20B4A00016000000D8C400001700000017000000D8C400001700000018000000D8C4000045
:20B4C0001700000028000000D8C400001700000029000000D8C40000170000002A00000074
:20B4E000D8C40000170000002D000000D8C40000170000002E000000D8C4000017000000D8
:20B500002B000000D8C40000170000002C000000D8C400001700000020000000D8C40000B2
:20B520001700000021000000D8C400001700000022000000D8C40000170000002300000028
:20B54000D8C400001700000024000000D8C400001700000025000000D8C400001700000089
:20B5600026000000D8C400001700000027000000D8C400000300000006000000CCC4000096
:20B580000300000003000000CCC400000300000004000000CCC40000030000000700000074
:20B5A000CCC400000300000009000000CCC40000030000000A000000CCC4000003000000BF
:20B5C00020000000CCC40000000000000000000000000000A0000000DCBD0000A1000000E1
:20B5E000E0BD0000A2000000E4BD0000A3000000E8BD0000A4000000ECBD0000A500000031
:20B60000F0BD0000A6000000F4BD0000A7000000F8BD0000A8000000FCBD0000A9000000C0
:20B6200000BE0000AA00000000000000AB00000000000000AC00000004BE0000B0000000D9
:20B6400008BE0000B20000000CBE0000B300000010BE0000B400000014BE0000B5000000EC
:20B6600018BE0000B60000001CBE0000BE00000000000000BF0000000000000000000000E7
:20B680000000000054430000343000003000000054430000363500003000000054430000B6
:20B6A000393000003000000054490000313000003030000000550000433400003030000067
:20B6C000005200004334000030300000005500004339000030300000005200004339000042
:20B6E00030300000005800004334000030300000005800004339000030300000005800002F
:20B70000533100003030000030000000584C000031300000303000000054000045390000DE
:20B72000303000000054000050530000313000003000000054500000533300003030000097
:20B74000005400005053000038300000300000005245000053370000303000000055000084
:20B76000455300003930000030000000524500005339000030300000005800004553000025
:20B78000373000003000000042DB00000100000048DB0000020000004EDB000003000000A3
:20B7A00054DB0000040000005BDB00000500000061DB00000500000067DB00000600000092
:20B7C0006DDB00000600000073DB00000700000079DB0000080000007FDB00000900000007
:20B7E00086DB00000A0000008DDB00000B00000093DB00000C0000009ADB00000D0000006F
:20B80000A1DB00000E000000A8DB00000F000000AFDB000010000000B6DB000010000000D1
:20B82000BDDB00001100000000000000000000000000000002000000AC1A00000100000096
:20B8400002000000B61A00000200000001000000B01A00000400000002000000B21A000077
:20B860000500000002000000B41A00000600000002000000B61A0000070000000100000013
:20B88000B81A00000B00000001000000B91A00000980000002000000BA1A00000A8000000E
:20B8A00002000000BC1A0000078000000000000000000000088000000000000000000000A1
:20B8C00000000000000000000000000011000000010000000D0000000100000000800000C8
:20B8E0000100000001800000010000000280000001000000038000000100000012000000AC
:20B900000100000009800000010000000A800000010000000480000001000000000000008C
:20B920000000000000000000010000000200000001000000030000000100000004000000FB
:20B9400001000000070000000100000008000000010000000A000000010000000B000000BF
:20B96000010000000C00000001000000068000000100000000000000000000000000000032
:20B98000010000000200000001000000030000000100000004000000010000000700000093
:20B9A0000100000008000000010000000A000000010000000B000000010000000C0000005A
:20B9C0000100000000000000000000000D00000001000000048000000100000000000000D3
:20B9E0000000000012010000000200000000000000080000177F0000110000000001000082
:20BA0000010200000001000009020000290000000101000000C000003209000004000000ED
:20BA2000000200000300000000000000092100001101000000010000221D0000000700007E
:20BA40000581000003400000000100000705000001030000400000000100000004030000C4
:20BA6000090400003A03000054000000720000007500000065000000200000004600000076
:20BA800069000000740000006E00000065000000730000007300000020000000540000009C
:20BAA0006500000063000000680000006E0000006F0000006C0000006F0000006700000037
:20BAC0007900000020000000490000006E000000630000002E0000002C0300004E00000008
:20BAE00075000000630000006C000000650000007500000073000000200000004300000052
:20BB00006F0000006E00000074000000720000006F0000006C000000200000004200000025
:20BB20006F00000061000000720000006400000006000000FF09000001A100000119000095
:20BB4000012900004015000000260000FF0000007508000095400000810000001901000054
:20BB60002940000091000000C000000004DD00002EDD000032DD00006CDD000001000000C6
:20BB80001000000040000000000000000200000050000000300000000000000003000000D0
:20BBA00080000000100000000000000004000000900000002000000000000000050000003C
:20BBC000B0000000100000000000000006000000C0000000200000000000000007000000B8
:20BBE000E000000030000000000000000800000010010000400000000000000009000000D3
:20BC00005001000030000000000000000A0000008001000080000000000000000B0000008D
:20BC200000020000800000000000000000000000000000000000000000000000070000007B
:20BC400004000000261D000008000000030000002E1D00000900000000000000000000003E
:20BC60000000000000000000000000000100000000000000000000000200000000000000C1
:20BC800000000000030000000000000000000000040000000000000000000000000000009D
:20BCA000000000000000000000000000070000000100000054DE0000080000000000000042
:20BCC00000000000050000000000000000000000040000000000000000000000000000005B
:20BCE000000000000000000000000000000000000000000000020000FFFF0000FFFF000046
:20BD0000FF01000003FF0000FFFF0000FFFF0000FFFF0000040700000AFF0000FFFF000015
:20BD2000FF050000080B0000FFFF0000FFFF0000060900000CFF0000FFFF0000FFFF0000DA
:20BD4000FFFF00000D0F0000FFFF0000FFFF0000FF0E0000100000000F000000A8030000F6
:20BD600064000000CD050000C8000000B90700002C0100000909000090010000F809000034
:20BD8000F4010000C20A000058020000A40B0000BC020000DA0C000020030000A10E000063
:20BDA0008403000035110000E8030000D414000000000000000000000000000028000000BB
:20BDC000C8000000C80000000000000098C400009CC40000A0C40000000000006842000009
:20BDE000204E0000E0AB000000000000A4C40000A8C40000ACC40000000000000401000001
:20BE000004010000401F000000000000B0C40000B4C40000B8C400000E0100000200000045
:20BE200002030000050000002003000010000000300300001000000040030000050000003A
:20BE40000000000000000000000100000200000010030000030000000AD1000001000000ED
:20BE6000000000000000000001070000010E00000103000002090000030500000409000087
:20BE800006090000010000000200000003000000040000000600000000000000020300007E
:20BEA0000F0000000200FA00004F7800F05B8000001890000000E00004003200F05B80005C
:20BEC000801890001E407800010001000080FA00000006000800FA00200798003107980051
:20BEE000681B020002000000000F7800BE009000110798002E009000E10F50002C003200DA
:20BF0000E10F500003003900E20F500020003200280037001E0078009080FB001040900032
:20BF20000080FB004800DD0000807000E10F500003003200E30F50000D0032001300370031
:20BF40001E009000100078000000D100614060008080FB001E0090001000780061406000A7
:20BF60000080FB00BCCE020001000000070037001E00900010009000614060000080FB00B1
:20BF8000BACF02000100000000000000090037008001EB00520020008000EB00E0332E004B
:20BFA000B20D0200020000000000000001003700000000000080FA00000006000000FA000C
:20BFC000605080003EF50200010000000C2AEF00042AEF008001EB000001EB008000EB00F6
:20BFE000E0332E00B20D0200020000000080FA00000006000200FA00000F78009E00780024
:20C00000515088005050800006CF0200010000005050800080007800C0002000ED0C070007
:20C020000080FA00000006000800FA00901B020002000000000F7800881B020002000000A1
:20C0400010079800A01B020002000000200798000000EB00300798001E0178009E00900034
:20C060002E009000E04990008381FB00704890000080FB004800DD00008071008EC402001D
:20C0800001000000300798003E0090000080FA00000006000000FA00E3FF07005109200025
:20C0A000810F500008003C00005180003EF5020001000000202AEF000000EB00F416020025
:20C0C000020000000500370000518000A2042E00813E20008AF50200010000000080FA00A2
:20C0E000000006000000FA00005180000000E00003003A00EEF40200010000000051880094
:20C1000000518000A2042E00813E20008AF5020001000000B8160200020000000080FA00CD
:20C12000000006000200FA00000F78009E007800C15088000080FA00000006000600FA0047
:20C140001007980021079800681B020002000000000F7800C0508000E60F500024003E002B
:20C16000110020008008DD00C0052000008060000000E000200032001E0090000000E000A4
:20C180001F003A00528A0200010000000004A2000004E000030032005000200095FF07009D
:20C1A000020037007000200092FF07001E00780020709000E24F500006003A009AFF070007
:20C1C00081072000810F500002003400B8160200020000008000EB000000EB00010507006C
:20C1E0002008070010C0B30026EAB700050037000000000003003700000000000100370018
:20C20000000000000080FA00000006000400FA001007980080932D00000F780009003700EA
:20C220001E007800900078001E009000808F500002003A001E0078000B0037009E00780029
:20C24000648F40001E007800100078000000E000F3FF3A001E007800100090000000E0006B
:20C26000EFFF3A000000EB000080FA00000006000400FA00000F78001107980010C0B30073
:20C2800024EAB7000080FA00000006000400FA00781B020002000000000F78001E007800A7
:20C2A0009080FB00104090000080FB004800DD0000807000D5FF070010079800246AEF00FC
:20C2C0001E0090000000E0001E003200EEF4020001000000D0508800420020009E00900063
:20C2E000C0B72000D8CA020000000000F05B8000100090000000E00005003200F05B8000B6
:20C300009000900080132E00010001000200370010C0B30024EAB700F05B80001000780066
:20C320000000E00004003200F05B800090007800A0F62D00010001000C1B02000200000024
:20C3400001003700000000000080FA00000006000400FA00000F7800110798009E007800DA
:20C36000715188009E009000815188008001EB00220020008000EB00E0332E00B20D0200D0
:20C38000020000000080FA00000006000000FA00F05B8000200090000000E0000400320090
:20C3A000F05B8000A0009000801A2E00010001000080FA00000006000200FA0020032000F9
:20C3C000000F7800F05B8000400090000000E00006003200F05B8000400190008051800036
:20C3E000800078007051800002000100F05B8000500090000000E00004003200F05B800075
:20C400005000900000000100000F78008001EB00120020009E007800E0332E00B20D0200FE
:20C42000020000000080FA00000006000000FA008001EB00320020008000EB00E0332E0016
:20C44000B20D0200020000000080FA00000006000600FA00681B0200020000001007980063
:20C46000781B020002000000200798001E0090009080FB00104090000080FB004800DD002D
:20C4800000807000E10F500021003A007494020001000000004F78002E0090009080FB0076
:20C4A000104090000080FB004800DD00008070000000E00002003A0010C0B300004F7800A6
:20C4C0001E4078000004E0000300320040002000C8FE07000200370010002000C5FE07000D
:20C4E0002E0090009080FB00104090000080FB004800DD00008070000000E00006003200EB
:20C50000E0092E00FC94020001000000030037000000000001003700000000000080FA0085
:20C52000000006000A00FA00881B02000200000010079800681B0200020000002007980055
:20C540006406070030079800C4060700400798003E0090000000E00003003A000000EB0015
:20C56000000F78000F003700BE009000B0032000808F500006003E00C10320004E00900068
:20C58000CECA020001000000000F780005003700BE0090004E009000CECA02000100000076
:20C5A000000F78009E007800615188001E019000AE0090001E00780064CA020001000000F0
:20C5C000000F7800F05B8000400890000000E00007003200F05B8000C00890001E0078005F
:20C5E000010001009E00780060002000790B07000080FA00000006000200FA00681B020017
:20C6000002000000000F78001E0078009080FB00104090000080FB004800DD000080700080
:20C62000E60F500013003E00110020008008DD00C0052000008060000000E0000D003200EA
:20C64000DB0507008000780030002000610B07002006070080007800400020005D0B070044
:20C66000BA0607008000780020002000590B0700000000000080FA00000006000600FA00D0
:20C680001007980021079800681B020002000000000F7800205080000000E0000300320018
:20C6A000E20F500022003200660037001E0090000000E00060003A00F4FE070020002000E7
:20C6C0002050880031FF07001E0078009080FB00104090000080FB004800DD00008070001A
:20C6E000E20F50000A003200E20F500003003E00E10F5000090032000B003700E40F50003B
:20C7000003003200E60F50000100320006003700FCDC020001000000040037004CFF0700C7
:20C72000510107000100370000000000450037001E009000E10F500004003A002000200080
:20C740002050880011FF0700350037001E009000E20F500020003A002000200020508800DD
:20C76000705180000000E0000C003A00305080000000E00009003A00EEF40200010000004A
:20C78000305088003050800062212E0081BB20008AF50200010000000D003700705180007D
:20C7A0000000E0000A003200305080000000E00007003200305080004AF602000100000001
:20C7C000305080003EF5020001000000062AEF00F9FE0700120037001E009000E30F5000CD
:20C7E0000B003A0032CABF000004A2000004E0000B00320010C0B30032EAB70031002000CB
:20C8000020002000A089020001000000040037001E009000E50F500001003A0076FF0700C8
:20C8200016CABF000004E00005003200166AEF003CFF07000300370000000000010037001B
:20C84000000000000080FA00000006000400FA00000F7800110798001E007800E10F50004D
:20C8600011003A003000200020508800305080004AF6020001000000305080003EF50200AD
:20C8800001000000062AEF00EEF40200010000006050880060508000E2FD2D008138210045
:20C8A0008AF50200010000000080FA00000006000000FA000040EB007AFD0700F05B800008
:20C8C000300090000000E00004003200F05B8000B000900060422E00010001000080FA002B
:20C8E000000006000000FA0024CABF000080FA00000006000200FA00681B02000200000088
:20C90000000F78001E0078009080FB00104090000080FB004800DD0000807000E10F50003F
:20C9200018003A00EFFF07000004E0001200320020508000E20F50000F003A00C05080007E
:20C940000000E0000A003200C0508000E30F500007003200C0508000E60F500006003A009B
:20C960000C9F0200010000000004E0000200320010002000010037000000EB0000407800E6
:20C9800007003700D7FF07000080FB0000F0A7000000EA000000EA004F00DE0000407800B1
:20C9A0000080FA00000006000000FA00C0508000E50F500040003200E50F500003003E0032
:20C9C000E40F500006003200A5003700E60F500059003200E70F500091003200A000370050
:20C9E000ED0A07000004A2000004E00012003200F50A07000004A2000004E0000E0032009B
:20CA0000D21E0200020000000004E0000A00320060002000C3FD0700142AEF00D0508000EE
:20CA2000424D2E00813E20008AF5020001000000266AEF001F003700D70A07000004A20075
:20CA40000004E00015003200DF0A07000004A2000004E00011003200D21E020002000000FA
:20CA60000004A2000004E0000C0032000000EB00ACFD07007C000700D05080004AF60200EE
:20CA800001000000100020005AFD0700266AEF00B81602000200000006003700D0508000D9
:20CAA000424D2E00813E20008AF50200010000006B0037006A003700D21E02000200000021
:20CAC0000004E00004003A00528A0200010000000004E000120032004000200091FD070038
:20CAE000528A0200010000000004A2000004E00005003200600020003EFD07008000EB0069
:20CB00000000EB0084030700D0508000424D2E0081BB20008AF502000100000050003700DA
:20CB2000D0508000424D2E00813E20008AF50200010000004A003700A05180000000E00065
:20CB4000070032003000200076FD0700D05080004AF6020001000000390107004000370037
:20CB60000C9F0200010000000004A2000004E0000C003200880A07000004A2000004E0001C
:20CB800008003200900A07000004A2000004E00004003200A05080000000E800A05088002A
:20CBA00001003700142AEF00A0508000E50F500005003200D21E0200020000000004A2008B
:20CBC0000004E00010003200142AEF007000200054FD07000040EB00B2FC0700100020000A
:20CBE00004FD0700266AEF00D0508000424D2E00813821008AF5020001000000B816020025
:20CC00000200000016003700D0508000424D2E00813E20008AF502000100000010003700C0
:20CC2000A05180000000E00006003200A0AD2E00AC1E0200020000001000200039FD0700B5
:20CC4000030037000000EB0036FD070006000700D05080004AF60200010000000000000085
:20CC60000080FA00000006000000FA001000200070508800805080000000E00003003A0055
:20CC8000EEF4020001000000805088008050800042652E00813E20008AF5020001000000D1
:20CCA0000080FA00000006000400FA00781B02000200000010079800C05080000000E00040
:20CCC00005003200805080004AF60200010000000E2AEF003A00370070508000E10F500072
:20CCE00003003200E20F50000C0032003400370020002000705088008050800042652E0068
:20CD0000110020008AF502000100000010C0B3004894020001000000290037007494020094
:20CD200001000000004F78001E0090009080FB00104090000080FB004800DD000080700002
:20CD40000000E00002003A0010C0B300004F78001E4078000004E0000B0032000040EB004B
:20CD6000489402000100000010002000705088008050800042652E00813E20008AF50200D7
:20CD8000010000000E0037005000200099FC0700805080004AF60200010000000E2AEF0087
:20CDA00050002000DFFC0700D0508000424D2E00813E20008AF50200010000000000000063
:20CDC0000080FA00000006000200FA00A01B020002000000000F78001E007800A04090008B
:20CDE0008180FB00304090000080FB004800DD0000807000E60F50000D003E008AFC07008A
:20CE000061092000810F500001003400B5FC0700F05B8000E00090000000EB000100010093
:20CE2000F05080004AF602000100000005003700F0508000426E2E00813E20008AF50200B5
:20CE4000010000000080FA00000006000600FA00881B020002000000000F7800781B02008E
:20CE60000200000010079800A01B02000200000020079800B15180002E009000F20F200022
:20CE800002816000C0419000E0C1610002C1710042409800C808DE005041900060416100FD
:20CEA0008140710051409800A15180002E009000F20F20000281600090417800E0C1610098
:20CEC00002C1710002487800C808DE00104190006041610081407100114098001E00900002
:20CEE0009080FB00104090000080FB004800DD0000807000EE0F5000100032001E0090007A
:20CF00009080FB00104090000080FB004800DD0000807000E30F5000080032001E0090006C
:20CF20009080FB00104090000080FB004800DD00008070000000E0000C003A001E007800BA
:20CF4000A04890008180FB00304890000080FB004800DD000080700080007800B05180004C
:20CF60002803020002000000C05188000080FA00000006000600FA001007980021079800FA
:20CF8000781B020002000000000F78001E0090000000E00027003200F05B800060009000D1
:20CFA0000000E00024003200A8FF07001E0078009080FB00104090000080FB004800DD006C
:20CFC00000807000EE0F5000100032001E0078009080FB00104090000080FB004800DD00B1
:20CFE00000807000E30F5000080032001E0078009080FB00104090000080FB004800DD00A4
:20D00000008070000000E00005003A00F05B8000E0009000C05180000100010006003700F6
:20D02000F05B8000E0009000B05180000100010001003700000000000080FA00000006007A
:20D040000400FA00A01B020002000000000F7800781B02000200000010079800F05B80007B
:20D06000600090000000E0005500320077FF0700A05180000000E00044003A00D21E02001B
:20D08000020000000004E000400032001E007800A04090008180FB00304090000080FB00BB
:20D0A0004800DD0000807000E50F500010003600F05080000000E00003003A00EEF4020010
:20D0C00001000000F0508800F0508000426E2E00813E20008AF5020001000000F05B8000BD
:20D0E000E0009000500020000100010034003700CDFB070061092000810F50000100340075
:20D10000F8FB07001E0090009080FB00104090000080FB004800DD0000807000EE0F50009F
:20D12000100032001E0090009080FB00104090000080FB004800DD0000807000E30F500042
:20D14000080032001E0090009080FB00104090000080FB004800DD00008070000000E0008C
:20D1600005003A00F05B8000E0009000C05180000100010012003700F05B8000E00090001E
:20D18000B0518000010001000D003700F05080004AF6020001000000D21E020002000000D1
:20D1A0000004E000060032000000EB00F4160200020000008000EB00100020006DFF07004C
:20D1C0000080FA00000006000000FA0010C0B300020007000080FA00000006000200FA00CD
:20D1E000004F7800C0508000E30F50008B003200E30F500005003E00E10F50000A003200D8
:20D20000E10F500048003E00E8003700E60F5000B5003200E70F5000D5003200E40F50006D
:20D2200096003200E10037002A1F0200020000000004A2000004E00020003200D21E0200F3
:20D24000020000000004E0001C003200A05180000000E00003003A0012CABF000004E0008D
:20D2600016003200126AEF0010C0B3000DFB070020002000ABFB0700D05080004AF602009A
:20D2800001000000E05080000000E00003003A00EEF4020001000000E0508800E050800073
:20D2A000428E2E00017D20008AF5020001000000400020004FFB0700BC003700342AEF005F
:20D2C000362AEF00382AEF00266AEF002A1F0200020000000004E000090032000000EB00D8
:20D2E00090FB07001000200042FB07005100200010002000A089020001000000AB00370079
:20D30000500020003BFB07005000200085FB0700D0508000424D2E00813E20008AF50200AC
:20D3200001000000A1003700D21E0200020000000004E00016003200BB0807000004E00046
:20D3400013003200A05180000000E000040032003000200073FB070039FF070007003700BF
:20D36000600020006FFB0700D0508000424D2E00813E20008AF5020001000000E05080004E
:20D380003EF50200010000001C2AEF0022003700D21E0200020000000004E0000A003200B5
:20D3A000A10807000004A2000004E00006003200E0508000428E2E00A10020008AF502000B
:20D3C0000100000014003700201F0200020000000004E00008003200D21E020002000000AC
:20D3E0000004A2000004E00003003200500020004CFB0700020037004000200049FB0700CC
:20D40000D0508000424D2E00813E20008AF50200010000006500370064003700A0518000A6
:20D420000000E00013003A00201F0200020000000004E00008003200D21E0200020000006A
:20D440000004A2000004E000030032005000200034FB0700020037004000200031FB07009B
:20D46000D0508000424D2E00813E20008AF5020001000000F2FE07004C003700A051800003
:20D480000000E000070032003000200025FB0700D05080004AF6020001000000E8FE07002C
:20D4A00042003700201F0200020000000004E00039003200D21E0200020000000004A200C7
:20D4C0000004E000360032005000200015FB0700D0508000424D2E00813E20008AF50200BC
:20D4E0000100000031003700A05180000000E00007003200300020000AFB0700D05080003D
:20D500004AF6020001000000CDFE070027003700201F0200020000000004E0000D00320032
:20D52000D21E0200020000000004A2000004E0000800320050002000FAFA0700D050800028
:20D54000424D2E00813E20008AF502000100000016003700D21E0200020000000004E00088
:20D560001100320040002000A2FA07000F003700A0AD2E00AC1E02000200000010002000A6
:20D58000E8FA0700D05080004AF60200010000000000000005003700000000000300370049
:20D5A0000000000001003700000000000080FA00000006000400FA00000F7800110798007E
:20D5C0001E00780000F0A7000000EA000000EA004F00DE000040780000FF07000080FA00E5
:20D5E000000006000600FA00881F78001007980021079800881B020002000000000F780069
:20D60000528A0200010000000004E0000C0032002E0090000000E00009003200A88A0200FC
:20D620000100000000447800868A020001000000884078009ECF020001000000B300370080
:20D640001E009000E10F500022003200E10F500003003900E20F50003F003200AB00370078
:20D660002E0090001028020002000000A05188001E007800804890008180FB001048900065
:20D680000080FB004800DD000080700080007800A0518000D403020002000000C05188001D
:20D6A0001E007800A04890008180FB00304890000080FB004800DD000080700080007800D0
:20D6C000C05180008403020002000000B0518800460037002E009000EE0402000200000074
:20D6E000A0518800A05180001028020002000000A05188001E007800804890008180FB00A1
:20D70000104890000080FB004800DD000080700080007800A0518000D4030200020000004D
:20D72000C05188001E007800A04890008180FB00304890000080FB004800DD0000807000AE
:20D7400080007800C05180008403020002000000B0518800250037001E007800A0489000C2
:20D760008180FB00304890000080FB004800DD0000807000800078002E0090002803020032
:20D7800002000000C05188001E007800804890008180FB00104890000080FB004800DD007C
:20D7A0000080700080007800C05180004004020002000000A05188001E007800A048900021
:20D7C0008180FB00304890000080FB004800DD000080700080007800C051800084030200A3
:20D7E00002000000B0518800000000001E007800A04090008180FB00304090000080FB0021
:20D800004800DD000080700080007800A0518000808F50003A003900C0508000E40F5000E5
:20D820002A003200E40F500007003E00E20F50001A003200E20F50001C003E000000E000FC
:20D840000800320031003700E60F50001B003200E60F500025003900E70F50001F0032005A
:20D860002A003700A05180000000E00003003A0012CABF000004E00023003200A0AD2E006A
:20D88000AC1E0200020000001000200025FA070030002000D7F907001C003700D21E0200F8
:20D8A000020000004DFE070018003700D21E02000200000049FE070014003700D21E020046
:20D8C0000200000045FE070010003700D21E02000200000041FE07000C003700D21E020046
:20D8E000020000003DFE070008003700342AEF00382AEF00362AEF0000000000030037007E
:20D900000000000001003700000000004F0478000080FA00000006000E00FA00881F78005D
:20D920005007980061079800901B02000200000020079800881B0200020000003007980014
:20D94000A01B020002000000400798000000EB00000F78000000EB0010079800D21E02002B
:20D96000020000000004A2000004E00082003A00528A0200010000000004E0000900320061
:20D98000A88A02000100000000447800868A0200010000008840780082CF020001000000EF
:20D9A0007E00370027CABF000004E00009003200E08A02000100000000447800CA8A020064
:20D9C000010000008840780082CF020001000000720037005E0090000000E0000300320006
:20D9E000E10F5000350032006C0037002E009000A04090008180FB00304090000080FB0038
:20DA00004800DD0000807000E10F40005C0032002E0090009080FB00104090000080FB000F
:20DA20004800DD0000807000E10F400056003200EE0090003E009000604190000281FB001E
:20DA4000704090000080FB004800DD0000007100808F50004E003C00EE0090003E00900040
:20DA6000404190000281FB00504090000080FB004800DD0000007100808F5000460035000C
:20DA80006E009000AC2802000200000060079800AE0090003E009000010178008000780033
:20DAA0006E009000B6C4020001000000000F7800EE009000110798000B003700EE00900076
:20DAC000010F7800AE0090003E00900001017800800078001E0078008EC402000100000055
:20DAE0001007980000000000F05B8000700090000000E000290032004E009000F10F200073
:20DB00009E806000404990006041610081407100414898009E007800C808DE00504990002C
:20DB20006041610081407100514898004E0090001E019000F10F2000810061000049900018
:20DB40006041610081407100014898009E009000C808DE00104990006041610081407100B7
:20DB600011489800F05B8000F00090001E0078000100010009003700000000000700370053
:20DB8000000000000500370000000000030037000000000001003700000000004F0478000C
:20DBA0000080FA00000006000600FA00000F780011079800220798009E0078005000200067
:20DBC000040607001E0078000000E00003003200E10F5000080032000E003700AE0090008C
:20DBE00070002000FB0507008000EB0080002000F8050700070037008000EB007000200046
:20DC0000F40507009E00900080002000F1050700000000000080FA00000006000800FA00B7
:20DC2000300798000000EB00000F7800881B02000200000010079800681B020002000000C6
:20DC400020079800BE009000615188001E019000AE0090003E00900064CA02000100000091
:20DC6000000F7800F05B8000400890000000E0000B003200F05B8000C00890001E007800A4
:20DC8000010001003E0190008000EB000000EB00C5FF07009E00780060002000CD05070023
:20DCA000405080000000E00003003200405080004AF60200010000000080FA00000006006C
:20DCC0000000FA0010C0B30016EAB7004050800002E62E00411F20008AF5020001000000E8
:20DCE0000080FA00000006000200FA00000F7800405080000000E00003003A00EEF4020010
:20DD000001000000405088004050800002E62E00410620008AF50200010000000001EB00EF
:20DD20009E007800100020009FFF07000080FA00000006000200FA00000F7800803E200017
:20DD40009E007800808F500016003E00F05B8000400890000000E0000B003200F05B80006F
:20DD6000C00890001E007800010001000001EB008000EB000000EB008BFF07009E007800CA
:20DD80006000200093050700405080000000E00005003200405080004AF6020001000000EA
:20DDA00001003700000000000080FA00000006000600FA00681B0200020000001007980075
:20DDC000881B020002000000200798001E0090009080FB00104090000080FB004800DD00A4
:20DDE00000807000E30F500013003200E30F500003003E00E20F500018003200290037003E
:20DE0000E40F500003003200E60F50001C003200240037002E009000A04090008180FB0072
:20DE2000304090000080FB004800DD0000807000000F78001B0037002E009000A04090004B
:20DE40008180FB00304090000080FB004800DD0000807000000F7800120037002E009000A8
:20DE6000A04090008180FB00304090000080FB004800DD0000807000000F780009003700DF
:20DE80002E009000A04090008180FB00304090000080FB004800DD0000807000000F780041
:20DEA00000000000F05B8000500890000000E00005003200F05B8000D00890001E007800CF
:20DEC00001000100010037000000EB000080FA00000006000A00FA00681B02000200000012
:20DEE00020079800881B02000200000030079800A01B020002000000400798002E00900091
:20DF00009080FB00104090000080FB004800DD0000807000E30F50001A003200E30F5000B6
:20DF200003003E00E20F50002600320045003700E40F500003003200E60F5000310032006B
:20DF4000400037004E009000804890008180FB00104890000080FB004800DD0000807000A0
:20DF6000000F78003E0090009080FB00104090000080FB004800DD00008070001007980022
:20DF8000300037004E009000804890008180FB00104890000080FB004800DD000080700070
:20DFA000000F78003E0090009080FB00104090000080FB004800DD000080700010079800E2
:20DFC000200037004E009000804890008180FB00104890000080FB004800DD000080700040
:20DFE000000F78003E0090009080FB00104090000080FB004800DD000080700010079800A2
:20E00000100037004E009000804890008180FB00104890000080FB004800DD00008070000F
:20E02000000F78003E0090009080FB00104090000080FB004800DD00008070001007980061
:20E04000000000009E0090001E0078001C2F0200020000000080FA00000006000400FA002F
:20E06000681B020002000000000F7800A01B020002000000100798001E0078009080FB0083
:20E08000104090000080FB004800DD0000807000E30F500012003200E30F500003003E0007
:20E0A000E20F50001600320025003700E40F500003003200E60F500019003200200037001C
:20E0C0001E009000C04090008180FB00504090000080FB004800DD00008070001900370006
:20E0E0001E009000C04090008180FB00504090000080FB004800DD000080700011003700EE
:20E100001E009000C04090008180FB00504090000080FB004800DD000080700009003700D5
