:020000040001F9
:2078000010BD040000000000984004000200000026400400020000002C40040002000000DB
:20782000484004000200000064400400020000009840040002000000B8A1040001000000D4
:207840009840040002000000F6FE0400010000009840040002000000984004000200000095
:20786000984004000200000098400400020000009840040002000000984004000200000090
:20788000187C040001000000747B0400010000000C29040002000000984004000200000042
:2078A000984004000200000098400400020000000891040001000000984004000200000090
:2078C000984004000200000098400400020000009840040002000000984004000200000030
:2078E000984004000200000098400400020000009840040002000000047E04000100000067
:20790000607D040001000000984004000200000098400400020000006AA3040001000000B7
:2079200098400400020000001CA504000100000098400400020000009840040002000000E7
:207940009840040002000000984004000200000098400400020000009840040002000000AF
:2079600098400400020000009840040002000000984004000200000098400400020000008F
:207980009840040002000000167B040001000000207D0400010000009840040002000000F3
:2079A00098400400020000009840040002000000984004000200000098400400020000004F
:2079C0009840040002000000984004000200000098320400020000004C1D040002000000AC
:2079E0000C7F040001000000F07F0400010000004C7F0400010000009840040002000000D5
:207A00009840040002000000984004000200000098400400020000009840040002000000EE
:207A20000F3622000E7F24000E01880000000000000020000000E000020032000001200042
:207A4000200288000C000700E02520002100200011000700000020000000E00002003200B7
:207A60000000020000000000F0050200020000000040DA000000FE004440A900E043210082
:207A80000000E0000300320010002000A00188004440A80000000600910188008000780034
:207AA0000000EB0015003700E280400032A0B4009101BA00E280400032A0B4009102BA00A6
:207AC000E280400032A0B4000002EB00472BDE00F507B200602CE10004003A000059EB00A4
:207AE0008301E900FDFF3E00040037006128E100010032000082EB000B00070011C3BA00FA
:207B00001101BA000604E00003003A000200E000E5FF3A0000000600F607B200960188009E
:207B200082007800F5FF37003159BA008301E9000C0032002159BA008301E9000800320056
:207B40000400E00003003A00E280400032A0B400F5FF370011D9BA008301E900FAFF3A006D
:207B60008100E800E180400032A0B400000006000429040002000000161E04000200000002
:207B8000E62A0400020000009EF004000100000070AE040001000000D0B204000100000092
:207BA000C816040001000000FC18040001000000F018040001000000DC25040001000000B6
:207BC00042260400010000007226040001000000AE26040001000000D626040001000000C1
:207BE000022704000100000032270400010000003428040001000000642804000100000007
:207C0000A028040001000000D42804000100000010290400010000003A29040001000000F0
:207C2000AC29040001000000E0290400010000001C2A040001000000462A0400010000009C
:207C40003C19040002000000C0E3040001000000DAE104000100000046E204000100000034
:207C60005EE204000100000008E30400010000007AE30400010000008AE4040001000000FA
:207C800074E40400010000005EE40400010000002A8F040001000000CA8C04000100000027
:207CA000D68C040001000000288A0400010000003E8A040001000000128A04000100000038
:207CC000F84104000200000006420400020000001442040002000000224204000200000051
:207CE0003042040002000000EE3704000200000008380400020000002A3804000200000033
:207D00000A8904000100000024890400010000004689040001000000608904000100000057
:207D2000708904000100000074370400020000009437040002000000B86E04000100000098
:207D40006C300400020000000E310400020000009430040002000000C2300400020000007A
:207D6000142F040002000000C0EE040001000000E2ED040001000000E8E80400010000005E
:207D80008EE904000100000004EA0400010000001EEA04000100000038EA04000100000040
:207DA00042EA04000100000088EA0400010000008220040002000000262004000200000027
:207DC000F21F040002000000EC20040002000000AC2D040002000000302E04000200000037
:207DE000762E0400020000009827040002000000F4270400020000000E28040002000000B7
:207E0000422804000200000032F4040001000000A0F304000100000072F3040001000000C5
:207E200018F404000100000090F4040001000000BCF5040001000000C4F404000100000035
:207E40009C110400020000001C100400020000005C100400020000007E1104000200000036
:207E6000B4CC040001000000A671040001000000407404000100000014720400010000001D
:207E80005472040001000000DC720400010000001873040001000000547304000100000068
:207EA0009473040001000000F4730400010000004E740400010000008A7404000100000080
:207EC0009474040001000000D07404000100000012750400010000005875040001000000EE
:207EE000987604000100000030780400010000004042040002000000AC98040001000000F1
:207F00003A990400010000005299040001000000389F040001000000209F040001000000F9
:207F2000A69F0400010000001EA00400010000006C430400020000009643040002000000A0
:207F4000A043040002000000A03F04000200000058F604000100000076F60400010000008F
:207F600086F604000100000096F6040001000000A6F6040001000000B6F60400010000009D
:207F8000C6F6040001000000D6F6040001000000E6F6040001000000F6F60400010000007D
:207FA00006F704000100000016F704000100000026F704000100000036F704000100000059
:207FC00046F704000100000056F704000100000066F704000100000076F704000100000039
:207FE00086F704000100000096F7040001000000A6F7040001000000B6F704000100000019
:20800000C6F7040001000000D6F7040001000000E6F7040001000000F6F7040001000000F8
:2080200006F804000100000016F804000100000026F804000100000036F8040001000000D4
:2080400046F804000100000056F804000100000066F804000100000076F8040001000000B4
:2080600086F804000100000096F8040001000000A6F8040001000000B6F804000100000094
:20808000C6F8040001000000D6F8040001000000E6F8040001000000F6F804000100000074
:2080A00006F904000100000016F904000100000026F904000100000036F904000100000050
:2080C00046F904000100000056F904000100000066F904000100000086D104000100000048
:2080E000AED1040001000000D6D1040001000000E4D1040001000000F2D1040001000000CE
:20810000FCD104000100000006D204000100000014D204000100000022D2040001000000CC
:2081200030D20400010000004ED2040001000000A6D204000100000006D3040001000000B8
:20814000C6D30400010000001CD40400010000009C40040002000000BA40040002000000AA
:20816000D840040002000000422C040002000000602C0400020000007E2C0400020000002B
:208180009C2C040002000000C42C040002000000D22C040002000000822D04000200000062
:2081A000902D0400020000009E2D040002000000F640040002000000144104000200000094
:2081C000324104000200000050410400020000006E410400020000008C4104000200000007
:2081E000F88004000100000012810400010000002C810400010000004681040001000000EC
:2082000060810400010000007A810400010000009481040001000000C88104000100000010
:20822000FC810400010000003C820400010000007C82040001000000BC82040001000000B3
:20824000D68204000100000038840400010000001685040001000000868504000100000050
:208260009885040001000000CC85040001000000E68504000100000000860400010000008B
:208280001A860400010000005086040001000000B2860400010000000E8704000100000087
:2082A0009087040001000000AA87040001000000F48704000100000044880400010000001B
:2082C000B288040001000000CC8804000100000054620400010000005E6204000100000086
:2082E0006862040001000000A662040001000000E8620400010000003063040001000000BB
:208300009263040001000000BC650400010000000C660400010000008866040001000000D3
:20832000F07604000100000026770400010000008E77040001000000C477040001000000E6
:20834000FA770400010000005242040002000000CA420400020000000043040002000000B2
:208360003643040002000000F03F04000200000082210400020000007AD40400010000004D
:20838000B0D4040001000000E6D404000100000052D50400010000001CD504000100000073
:2083A00088D5040001000000BED5040001000000F4D5040001000000E02C040002000000E3
:2083C000162D0400020000004C2D04000200000024870400010000005A870400010000003F
:2083E0009A660400010000000C84040001000000CA83040001000000EA840400010000001E
:20840000A8840400010000008686040001000000E2860400010000004670040001000000F2
:208420000276040001000000065D0400010000005E5D040001000000CE5D04000100000067
:20844000925D040001000000B85E040001000000305F040001000000F4610400010000001F
:208460007262040001000000B462040001000000F6620400010000004663040001000000FD
:20848000B464040001000000D2650400010000002466040001000000486604000100000041
:2084A0007622040002000000DE0D040002000000D4310400020000001E32040002000000CC
:2084C00026320400020000002E3204000200000090320400020000003632040002000000A2
:2084E0003E320400020000004A3204000200000052320400020000005A3204000200000068
:2085000064320400020000006E3204000200000078320400020000005CA204000100000066
:20852000BEA2040001000000DCA204000100000016A1040001000000A6A10400010000004B
:208540000EA404000100000070A40400010000008EA4040001000000F2A20400010000007B
:2085600058A3040001000000C0A504000100000026A604000100000044A6040001000000D1
:20858000A4A40400010000000AA5040001000000E23D0400020000004E3B04000200000026
:2085A00078E30400000000007CE00400000000006AE10400000000009CDF0400000000002E
:2085C000DAE1040000000000D0E004000000000048E204000000000010E004000000000006
:2085E00060E40400000000000EE504000000000014EB0400000000008EE6040000000000C1
:208600001EE70400000000001EE9040000000000A2EE04000000000050F20400000000006C
:2086200098FE0400000000000048040001000000BE4B0400010000002A50040001000000C6
:20864000F847040001000000CC500400010000005451040001000000C051040001000000F5
:20866000DC51040001000000F8510400010000001452040001000000285204000100000090
:208680004852040001000000C052040001000000C8520400010000003408040001000000C4
:2086A0007C08040001000000B206040001000000DC14040001000000341204000100000034
:2086C00002080400010000002E140400010000006614040001000000881404000100000024
:2086E0009A14040001000000AC14040001000000BE14040001000000001504000100000011
:2087000012150400010000001C150400010000002815040001000000D015040001000000CB
:2087200002160400010000001616040001000000903C0400010000005A4504000100000076
:20874000A046040001000000CA45040001000000D2450400010000002E4604000100000085
:208760006246040001000000744604000100000086460400010000009646040001000000DB
:20878000A846040001000000BA460400010000005A46040001000000C4460400010000002D
:2087A000CE46040001000000DC460400010000001A34040002000000AC340400020000003F
:2087C0005834040002000000BC34040002000000FC55040001000000585604000100000008
:2087E000C456040001000000765B040001000000F4550400010000008E550400010000004E
:20880000EA550400010000003A5C0400010000007E5C040001000000AC5C0400010000008D
:20882000DA5C040001000000685504000100000086550400010000006A5C04000100000090
:20884000BCD70400010000007CD9040001000000C6D9040001000000CED9040001000000D6
:20886000DAD9040001000000EAD9040001000000F4D9040001000000FED9040001000000CA
:2088800006DA04000100000052DA04000100000048DA0400010000005EDA0400010000005E
:2088A0006EDA04000100000078DA04000100000082DA04000100000020DA040001000000B4
:2088C00028DA04000100000030DA04000100000038DA04000100000040DA0400010000004C
:2088E000CE330400020000009A47040001000000EE460400010000001847040001000000EE
:208900006C470400010000004C4704000100000018000400010000005EFF04000000000089
:20892000BCFF040000000000ECFF0400000000000C00040001000000B415040001000000AA
:208940005A53040001000000D652040001000000F8520400010000002E5304000100000063
:208960004E530400010000009836040002000000D83A040001000000963B04000100000090
:20898000263B040001000000E03A0400010000005C39040002000000B6DD0400010000001F
:2089A000E21304000200000004140400020000001A1404000200000032140400020000001E
:2089C00054140400020000006A140400020000008214040002000000A4140400020000004B
:2089E000BA14040002000000883A040002000000C23A04000200000010FA040001000000CA
:208A00000AFB040001000000FA34040002000000083B040002000000243B0400020000006A
:208A20007435040002000000C8340400020000001C350400020000006225040002000000A1
:208A4000F8BF040001000000C0BE0400010000007AAB040001000000D4A70400010000002D
:208A6000B8A7040001000000CC7A0400010000008C7C040001000000C67C040001000000F3
:208A8000EA7C040001000000F67C040001000000FE7C040001000000047D040001000000EF
:208AA0000C7D040001000000787E040001000000B27E040001000000D67E0400010000009F
:208AC000E27E040001000000EA7E040001000000F07E040001000000F87E040001000000D6
:208AE00064800400010000009E80040001000000C280040001000000CE80040001000000D0
:208B0000D680040001000000DC80040001000000E480040001000000403C040002000000AE
:208B2000F63B040002000000103C0400020000000AE604000100000062E60400010000006A
:208B40007C1B0400020000006A1B040002000000421C040002000000D805040002000000A6
:208B60000E2404000200000003F0A200889FBE008A9FBE008C1F7800710107007801330014
:208B80006450E1004F0032006420E1005200320003826C0007003B000905D0000306D000EC
:208BA000820F54000C065D00020039000200320089017800030678008582550004003D00D2
:208BC0000003FD008103FD008502EA008B854200840F720002003B0060001000E080180027
:208BE0006011B8000005EB007A28E1000A00390006007800C75DDD00F707B20087807500EB
:208C00002D003700828171000A017800610560008180D1000080D3008502E900F9FF3B006B
:208C2000060440008784480002003B0060041400E0841C000988A300070032008A81710079
:208C400082817100610164008904D1000884D3008B05E800170037000978A30013003A00E6
:208C60000B00E000130034008B05E9000804440089844C000A4474000978A3000D003A0073
:208C80000B00E000070034008B05E9000804440089844C0001003A000B0020000978A30002
:208CA000F7FF32000001EB0002003700828171000A017800E70007000CF0A70001F0A0004E
:208CC000300137006420E10002003A00838F6C00300133000801BE000200BE0029013700C1
:208CE000889FBE008A9FBE008C1F7800140107001B01330003866C006450E1002E00320030
:208D00006420E100330032006150E1002F0032006120E1003100320085855500EB07B000D0
:208D20000900200008042000050037000804440089844C000A0031000603430087834B001D
:208D40000001530081815B00F8FF33000203BE000800A0000804440089844C00F6FF3900F6
:208D6000C639DD008301730001003200130020008904D1000884D3000998A3000500320082
:208D80000800A7000300A0008904D1000884D3008B05E8008904D1000884D3000001EB00A3
:208DA0000281D200AB00070001F0A1000CF0A70001F0A000F30037006420E100F500320030
:208DC0000801BE000200BE00F7FF37006120E100F00032006000B800F3FF370000002000FA
:208DE00001F82700F0FF3700839F68000100E00002003D0060001000E08018000300E000B8
:208E000002003D0060011100E08119007E0107004F00E00002003B0060001000E08018004D
:208E200000000600889FBE008A9FBE008C9FBE000004BE00AD0007000800BE006420E100D6
:208E400048003E005500320072212700132B24005800070047003C000800BE00C2EC28006B
:208E6000E32C2C0051000700470035000800BE0001F0A10002002000033823004B000700B9
:208E8000430035000800BE00B2A32A0083FB2300F40007000200200003F0230001F0A700A9
:208EA00003F0A00031FF0700440007000005BE006300070001F0A2000006BE0002002800EF
:208EC00013F32300E70007000801BE0027FF0700809FBE000C00BE0032082800E3952B00DB
:208EE000E00007004F01BE0020FF07000006BE000001BE00DB000700809FBE00424125006D
:208F000083B82300D70007000200200003E8230016FF07000C01BE00D20007000006BE0061
:208F20004F00BE00F2F92B00C3D42300CD0007000200200003F023000CFF07000C01BE006B
:208F400009FF07000001BE000C00BE0064FF07000200200003F0230004FF07006101450026
:208F60008F0007004F06BE004F05BE004F04BE000000060001F8270000002000220220009B
:208F800082408800F7FF37006000B800FBFF370001F8230000002000F2FF370009F8A30009
:208FA000F0FF32006000B800EEFF37001400200028013700F4FF2F00260137000001BE0081
:208FC0004A0007000470A70003F0A1006509B100160032000D0035006828E100060035003C
:208FE000F0FF2F00F1FF27000300E00013003B000100280000000500000040008180480054
:209000008502E900FCFF3A0008003700F88F420002003C008000EB00000005008100D100A3
:209020000080D3008502E800FCFF3A000300E00002003B0060001000E0801800000006002B
:209040004F89DE00820178001D0137006011B8002B01370081002000618055000B003D005F
:209060000B00200061FE2F000100E1001D00340082817100610164008904D1000884D3000D
:209080000000E800FAFF3A00710020006100640003007000020060000900320061044400A6
:2090A000E0844C000988A500050032008B05E8006808E10002003A008904D1000884D300D1
:2090C000F20F20000258E10005003D00C75DDD00F907B2008980750008007800000006003B
:2090E0000BF827008B00780000000500C70ADE00F107B200F50FB20008003200E1CF420003
:20910000020032000170A00024000500810F7000010032000408050044000500810F700054
:2091200002003A00140005008502E9000000400081C04800FCFF3B000170A0002400050031
:209140000004BE00E9FF07000003BE000405BE000200BE00E5FF0700844F750000000600DD
:209160000200BE006450E100050036006420E100020036000968A30001003A000800BE00AD
:209180000160A0004F0678004F05BE004F04BE0000000600F0FF2F00F1FF2700F9FF370074
:2091A0000003BE00D1FF07006220E100020032000600BE000000060085024100E30F2000DC
:2091C0000328E10005003C00A3FE2F000328E10007003D000500200001003700F50F2000A1
:2091E00020022000804088006000B80008003700130020008381520005003D008100D10071
:209200000080D3008301E800FCFF3A0005002000C72ADD00F107B2008580700007F0A700AA
:2092200001F0A00000000600811F78000100E00002003D0060001000E08018000300E00094
:2092400002003D0060011100E08119007E0007004F00E00002003B0060001000E08018000A
:2092600000000600889FBE008A9FBE008C1F7800B3FF0700BAFF330003866C006450E100CA
:20928000240032006420E100270032006150E100220032006120E100210032008B854200CD
:2092A000EB07B1000134B800003AB8000804420089844A00013AB8000030B8008880400064
:2092C00009014A00040033000000400081804800020149008B05E900C909DD008301700012
:2092E0000100320013002000C814DE004814DD004709DE001200B200C808DE000884700079
:2093000054FF070001F0A1000CF0A70001F0A0009CFF37006120E1009EFF32000801BE0063
:209320000200BE00F7FF37006150E100FCFF3A0098FF3700889FBE008A9FBE008C1F7800BC
:209340000004BE0069FF07000478A30026003A006120E1002500320009F8A30025003A00A1
:209360006420E10021003200F507B1000508A3000200320000004000818048006044B800BF
:20938000031020000200200000004000818048000805440089854C000A0541008B8549009B
:2093A0000A0550008B855800030033000A00BE0002047400838474008301D1000281D30048
:2093C000830F7100F0FF3A008904D1000884D3006001490082017800C1ADDE00FB07B00001
:2093E0001CFF070067FF37000960A0000800BE0064FF37001202200082408800F0FF2F00A9
:20940000F1FF27005FFF37006022B800060220000000D0008180D2000482D2008582D2006A
:209420000000A0000202520083825A00030031000202420083824A000000A1000603E9007B
:20944000F3FF3A0000000600EFFF07000400BE0000000600889FBE008A9FBE00841F780036
:2094600037FF07004F00780011003300F0FF2F00838F6C0006003B00040565000A00A700A8
:209480000800370009F0A6001000200008003700820F5400838F5C000300390010002000C0
:2094A00001003E000000200009F0A7000000EA004F05BE004F04BE000000E00000000600BA
:2094C000881F7800030478000300E00007003D0060001000E080180060011900E0811900EB
:2094E00002003B0001F02D00030037000400070008F0A70001F0A0004F04780000000600CB
:20950000889FBE008A9FBE00008270000402710004827100260032000004BE000200BE0045
:209520006011B8006B092000950220000182CF000A0039000541B1000082CF00070039009A
:209540000541B1000982CF00040039000541B1000882CF00010039000541B1000542520063
:20956000120032000A003B0082817100610164008100D1000080D3008984D3000884D30044
:209580008B05E8000442E800F7FF3A00070037000804440089844C0000004800818048007D
:2095A0008B05E9000442E900F9FF3A00A9FE07004F05BE004F04BE0000000600E687470046
:2095C0008E1F7800D0BF9F00E1BF9F000E0037005FBA970014407800EFB9970093407800AE
:2095E0000201E900814F5000040032000080FB008180FB00010050000600370066875700E0
:20960000041FE800030FE8000200E000F0FF3A000000EB004F0778006F00B100000006005B
:209620008001780002003700B15978000201E9000200E000FCFF3A00000006008001780074
:2096400002003700815978000201E9000200E000FCFF3A0000000600B041780031C15100CA
:2096600002003A000304E000FBFF3A000200FB0000000600800078003104E000FEFF3A004C
:209680000080EA00008040000000060000000000B50200004B0400006A05000049060000D6
:2096A000000700009A0700001F08000095080000FF0800005E090000B5090000050A000003
:2096C0004F0A0000940A0000D50A0000110B00004A0B0000800B0000B40B0000E50B000009
:2096E000130C00003F0C00006A0C0000930C0000BA0C0000E00C0000040D0000270D0000F4
:20970000490D00006A0D00008A0D0000A90D0000C60D0000E30D0000000E00001B0E000035
:20972000360E0000500E0000690E0000820E00009A0E0000B10E0000C80E0000DF0E000056
:20974000F50E00000A0F00001F0F0000340F0000480F00005C0F00006F0F0000820F0000AB
:20976000950F0000A70F0000B90F0000CB0F0000DC0F0000EE0F0000FE0F00000F100000D9
:209780001F1000002F1000003F1000004E1000005E1000006D1000007C1000008A1000009D
:2097A00098100000A7100000B5100000C2100000D0100000DD100000EB100000F8100000E3
:2097C00005110000111100001E1100002A11000037110000431100004F1100005B1100007F
:2097E00066110000721100007D11000089110000941100009F110000AA110000B511000071
:20980000BF110000CA110000D4110000DF110000E9110000F3110000FD11000007120000A3
:20982000111200001B120000241200002E12000037120000411200004A1200005312000005
:209840005C120000661200006E120000771200008012000089120000921200009A1200009C
:20986000A3120000AB120000B3120000BC120000C4120000CC120000D4120000DC1200005B
:20988000E4120000EC120000F4120000FC120000041300000B130000131300001A13000038
:2098A000221300002913000031130000381300003F130000461300004E1300005513000034
:2098C0005C130000631300006A13000071130000781300007E130000851300008C1300004F
:2098E0009313000099130000A0130000A6130000AD130000B3130000BA130000C013000084
:20990000C7130000CD130000D3130000D9130000E0130000E6130000EC130000F2130000CB
:20992000F8130000FE130000041400000A14000010140000161400001B1400002114000023
:20994000271400002D14000032140000381400003E14000043140000491400004E14000091
:2099600054140000591400005F140000641400006A1400006F140000741400007A14000010
:209980007F14000084140000891400008F14000094140000991400009E140000A31400009E
:2099A000A8140000AD140000B2140000B7140000BC140000C1140000C6140000CB1400003B
:2099C000D0140000D5140000DA140000DE140000E3140000E8140000ED140000F1140000E1
:2099E000F6140000FB140000FF14000004150000081500000D150000121500001615000091
:209A00001B1500001F15000024150000281500002D15000031150000351500003A1500004B
:209A20003E15000042150000471500004B1500004F15000054150000581500005C15000015
:209A40006015000064150000691500006D1500007115000075150000791500007D150000E8
:209A60008115000085150000891500008D1500009115000095150000991500009D150000C6
:209A8000A1150000A5150000A9150000AD150000B1150000B5150000B9150000BD150000A6
:209AA000C0150000C4150000C8150000CC150000CF150000D3150000D7150000DB15000092
:209AC000DE150000E2150000E6150000E9150000ED150000F1150000F4150000F815000085
:209AE000FC150000FF15000003160000061600000A1600000D160000111600001416000078
:209B0000181600001B1600001F1600002216000026160000291600002D1600003016000075
:209B200034160000371600003A1600003E1600004116000044160000481600004B1600007A
:209B40004E1600005216000055160000581600005C1600005F160000621600006516000086
:209B6000691600006C1600006F1600007216000075160000791600007C1600007F16000096
:209B80008216000085160000881600008B1600008F160000921600009516000098160000AD
:209BA0009B1600009E160000A1160000A4160000A7160000AA160000AD160000B0160000C9
:209BC000B3160000B6160000B9160000BC160000BF160000C2160000C5160000C8160000E9
:209BE000CB160000CE160000D1160000D4160000D6160000D9160000DC160000DF1600000D
:209C0000E2160000E5160000E8160000EA160000ED160000F0160000F3160000F616000035
:209C2000F9160000FB160000FE160000011700000417000006170000091700000C1700005D
:209C40000F1700001117000014170000171700001A1700001C1700001F170000221700008A
:209C600024170000271700002A1700002C1700002F170000321700003417000037170000BF
:209C8000391700003C1700003F170000411700004417000046170000491700004C170000F8
:209CA0004E170000511700005317000056170000581700005B1700005D1700006017000034
:209CC0006217000065170000671700006A1700006C1700006F170000711700007417000074
:209CE00076170000791700007B1700007E17000080170000831700008517000087170000B5
:209D00008A1700008C1700008F170000911700009317000096170000981700009B170000F9
:209D20009D1700009F170000A2170000A4170000A6170000A9170000AB170000AD17000042
:209D4000B0170000B2170000B4170000B7170000B9170000BB170000BE170000C01700008C
:209D6000C2170000C4170000C7170000C9170000CB170000CE170000D0170000D2170000DA
:209D8000D4170000D7170000D9170000DB170000DD170000DF170000E2170000E41700002A
:209DA000E6170000E8170000EA170000ED170000EF170000F1170000F3170000F51700007E
:209DC000F8170000FA170000FC170000FE17000000180000021800000418000007180000CE
:209DE000091800000B1800000D1800000F1800001118000013180000151800001818000022
:209E00001A1800001C1800001E18000020180000221800002418000026180000281800007A
:209E20002A1800002C1800002E1800003018000032180000341800003618000039180000D9
:209E40003B1800003D1800003F180000411800004318000045180000471800004918000032
:209E60004B1800004D1800004F180000511800005318000055180000561800005818000094
:209E80005A1800005C1800005E1800006018000062180000641800006618000068180000FA
:209EA0006A1800006C1800006E18000070180000721800007418000075180000771800005C
:209EC000791800007B1800007D1800007F18000081180000831800008518000087180000C2
:209EE000881800008A1800008C1800008E180000901800009218000094180000951800002B
:209F000097180000991800009B1800009D1800009F180000A0180000A2180000A418000094
:209F2000A6180000A8180000AA180000AB180000AD180000AF180000B1180000B3180000FE
:209F4000B4180000B6180000B8180000BA180000BC180000BD180000BF180000C11800006C
:209F6000C3180000C4180000C6180000C8180000CA180000CB180000CD180000CF180000DB
:209F8000D1180000D2180000D4180000D6180000D8180000D9180000DB180000DD1800004B
:209FA000DE180000E0180000E2180000E4180000E5180000E7180000E9180000EA180000BE
:209FC000EC180000EE180000F0180000F1180000F3180000F5180000F6180000F818000030
:209FE000FA180000FB180000FD180000FF18000000190000021900000419000005190000A1
:20A0000007190000091900000A1900000C1900000D1900000F190000111900001219000013
:20A02000141900001619000017190000191900001A1900001C1900001E1900001F1900008B
:20A040002119000023190000241900002619000027190000291900002B1900002C19000003
:20A060002E1900002F1900003119000032190000341900003619000037190000391900007E
:20A080003A1900003C1900003D1900003F19000041190000421900004419000045190000FA
:20A0A00047190000481900004A1900004B1900004D1900004F190000501900005219000076
:20A0C00053190000551900005619000058190000591900005B1900005C1900005E190000F4
:20A0E0005F1900006119000062190000641900006519000067190000681900006A19000074
:20A100006B1900006D1900006E1900007019000071190000731900007419000076190000F3
:20A1200077190000791900007A1900007C1900007D1900007E190000801900008119000075
:20A1400083190000841900008619000087190000891900008A1900008C1900008D190000F7
:20A160008E190000901900009119000093190000941900009619000097190000991900007B
:20A180009A1900009B1900009D1900009E190000A0190000A1190000A2190000A419000000
:20A1A000A5190000A7190000A8190000A9190000AB190000AC190000AE190000AF19000086
:20A1C000B0190000B2190000B3190000B5190000B6190000B7190000B9190000BA1900000D
:20A1E000BC190000BD190000BE190000C0190000C1190000C2190000C4190000C519000094
:20A20000C7190000C8190000C9190000CB190000CC190000CD190000CF190000D01900001B
:20A22000D1190000D3190000D4190000D5190000D7190000D8190000D9190000DB190000A6
:20A24000DC190000DD190000DF190000E0190000E1190000E3190000E4190000E519000031
:20A26000E7190000E8190000E9190000EB190000EC190000ED190000EF190000F0190000BB
:20A28000F1190000F2190000F4190000F5190000F6190000F8190000F9190000FA19000049
:20A2A000FC190000FD190000FE190000FF190000011A0000021A0000031A0000051A0000D1
:20A2C000061A0000071A0000081A00000A1A00000B1A00000C1A00000D1A00000F1A00005C
:20A2E000101A0000111A0000131A0000141A0000151A0000161A0000181A0000191A0000EA
:20A300001A1A00001B1A00001D1A00000101000034BF00000102000038BF000001030000AA
:20A320003CBF00000105000040BF00000107000044BF00000109000048BF0000010B0000F5
:20A340004CBF0000010D000050BF0000010F000054BF00000111000058BF00000113000075
:20A360005CBF00000114000060BF00000116000064BF00000118000068BF000001190000FA
:20A380006CBF00000190000070BF000001F0000074BF00000201000078BF00000301000070
:20A3A0007CBF00000302000080BF00000303000084BF00000304000088BF0000030500007F
:20A3C0008CBF00000306000090BF00000308000094BF00002001000098BF000020020000E2
:20A3E0009CBF000021010000A0BF000025010000A4BF000030010000A8BF00003010000020
:20A40000ACBF000030110000B0BF000030120000B4BF000030130000B8BF0000301400006E
:20A42000BCBF000030150000C0BF000030160000C4BF000030170000C8BF000030180000FE
:20A44000CCBF000030190000D0BF0000301A0000D4BF0000301B0000D8BF0000301C00008E
:20A46000DCBF0000301D0000E0BF0000301E0000E4BF0000301F0000E8BF0000302000001E
:20A48000ECBF000030210000F0BF000030220000F4BF000030230000F8BF000030240000AE
:20A4A000FCBF00003025000000C000003026000004C000003027000008C00000302800003B
:20A4C0000CC000003029000010C00000302A000014C00000302B000018C00000302C0000CA
:20A4E0001CC00000302D000020C00000302E000024C00000302F000028C00000303000005A
:20A500002CC000003031000030C000003032000034C000003033000038C0000030340000E9
:20A520003CC000003035000040C000003036000044C000003037000048C000003038000079
:20A540004CC000003039000050C00000303A000054C00000303B000058C00000303C000009
:20A560005CC00000303D000060C00000303E000064C00000303F000068C000008001000088
:20A580006CC000008002000070C000008003000074C000008004000078C0000080050000E5
:20A5A0007CC000008006000080C000008040000084C000008041000088C0000080420000CA
:20A5C0008CC000008050000090C000008053000094C000008054000098C0000080600000DC
:20A5E0009CC0000080610000A0C0000080700000A4C0000081010000A8C0000081020000FD
:20A60000ACC0000081030000B0C0000082010000B4C0000082020000B8C000008203000062
:20A62000BCC0000082040000C0C0000082050000C4C0000082060000C8C0000082400000BB
:20A64000CCC0000082410000D0C0000082420000D4C0000083010000D8C000008302000022
:20A66000DCC0000083030000E0C0000084010000E4C0000084020000E8C00000840300003A
:20A68000ECC00000FE010000F0C00000FE020000F4C00000FE030000F8C00000FE040000F0
:20A6A000FCC00000FE05000000C10000FE06000004C10000FE07000008C10000FE0900007C
:20A6C0000CC10000FE0B000010C10000FE0C000014C10000FE0D000018C10000FE0E000004
:20A6E0001CC10000FE0F000020C10000FE11000024C10000FE12000028C10000FE13000091
:20A700002CC10000FE14000030C10000FE16000034C10000FE17000038C10000FE1800001C
:20A720003CC10000FE19000040C10000FE1B000044C10000FE22000048C10000FE2300009C
:20A740004CC10000FE1D000050C10000FE1E000054C10000FE1F000058C10000FE2000003B
:20A760005CC10000FEE0000060C10000FEE1000064C10000FF01000068C10000FF0200008F
:20A780006CC10000FF03000070C10000FF10000074C10000FF11000078C10000FF120000BB
:20A7A0007CC10000FF13000080C10000FF14000084C10000FF15000088C10000FF20000035
:20A7C0008CC1000000000000000000000180000090C100000181000094C100000182000000
:20A7E00098C10000018300009CC1000001910000A0C1000002800000A4C1000022800000A3
:20A80000A8C1000023800000ACC1000024800000B0C1000025800000B4C1000026800000EA
:20A82000B8C1000080800000BCC1000080810000C0C1000080820000C4C100008090000009
:20A84000C8C1000080830000CCC1000080840000D0C1000080850000D4C1000080860000AA
:20A86000D8C1000082800000DCC1000082810000E0C1000082820000E4C10000FE800000D5
:20A88000E8C10000FEF00000ECC10000FFA00000F0C10000000000000000000041420000A1
:20A8A0000D000000414300000D000000414400000D000000414500000D000000414700004D
:20A8C0000D000000414900000D000000414A00000D000000415100000D000000415200000A
:20A8E0000D000000415300000D000000413000000D000000413100000D000000413200003A
:20A900000D000000413300000D000000413400000D000000413500000D000000413600002D
:20A920000D000000413700000D000000413800000D000000413900000D00000053540000D1
:20A9400042200000303000000D0000005354000042200000303100000D000000535400000A
:20A9600042200000303200000D0000005354000042200000303300000D00000053540000E6
:20A9800042200000303400000D0000005354000042200000303500000D00000053540000C2
:20A9A00042200000303600000D0000005354000042200000303700000D000000535400009E
:20A9C00042200000303800000D0000005354000042200000303900000D000000535400007A
:20A9E00042200000313300000D0000005354000042200000313400000D0000005354000062
:20AA000042200000313500000D0000005354000042200000313600000D000000535400003D
:20AA200042200000313700000D0000005354000042200000313800000D0000005354000019
:20AA400042200000313900000D0000005354000042200000323000000D00000053540000FE
:20AA600042200000323100000D0000005354000042200000323200000D00000053540000E3
:20AA800042200000323300000D0000005354000042200000323400000D00000053540000BF
:20AAA00042200000323500000D0000005354000042200000323600000D000000535400009B
:20AAC00042200000323700000D0000005354000042200000323800000D0000005354000077
:20AAE00042200000323900000D0000005354000042200000333000000D0000000100000002
:20AB00004ED400000200000052D400000300000056D40000040000005AD400000500000087
:20AB20005ED400000600000062D400000700000066D40000080000006AD400000900000017
:20AB40006ED400000A00000072D400000B00000076D400000C0000007AD400000D000000A7
:20AB60007ED400000E00000082D400000F00000086D40000100000008AD400001100000037
:20AB80008ED400001200000092D400001300000096D40000140000009AD4000015000000C7
:20ABA0009ED4000016000000A6D4000017000000AED4000018000000B6D40000190000003F
:20ABC000BED400001A000000C6D400001B000000CED400001C000000D6D400001D0000008F
:20ABE000DED400001E000000E6D400001F000000EED4000020000000F6D4000021000000DF
:20AC0000FED400002200000006D50000230000000ED500002400000016D50000250000002B
:20AC20001ED500002600000026D50000270000002ED500002800000036D50000290000007A
:20AC40003ED500002A00000046D500002B0000004ED500002C00000056D500002D000000CA
:20AC60005ED500002E00000066D500002F0000006ED500003000000076D5000014C3000074
:20AC80000000000018C30000000000001CC3000020C3000024C3000028C300002CC3000056
:20ACA00030C3000034C3000038C300000000000000000000000000000000000000000000AF
:20ACC000000000003CC3000040C3000044C3000000000000000000000000000048C3000060
:20ACE0000000000000000000000000004CC3000050C3000054C3000058C300005CC30000E1
:20AD000060C3000064C3000068C300006CC3000070C3000074C3000078C3000000000000EA
:20AD200000000000000000000000000000000000000000007CC3000080C3000084C300004A
:20AD4000000000000000000088C300008CC3000090C3000094C300000000000098C3000054
:20AD6000000000009CC30000A0C3000000000000A4C30000A8C30000ACC30000B0C300005D
:20AD8000B4C30000B8C30000BCC30000000000000000000000000000000000000000000042
:20ADA00000000000C0C30000C4C30000C8C300000000000000000000CCC30000D0C30000DC
:20ADC0000000000000000000D4C30000D8C300000000000000000000000000000000000041
:20ADE00000000000000000000000000000000000000000000000000000000000DCC30000B4
:20AE0000E0C30000000000000000000000000000000000000000000000000000000000008F
:20AE200000000000000000000000000000000000E4C300000000000000000000E8C30000C0
:20AE4000ECC30000F0C3000000000000F4C30000F8C300000000000000000000000000001E
:20AE6000000000000000000000000000FCC3000000C4000004C4000008C400000CC40000EB
:20AE800010C4000000000000000000000000000014C4000018C4000000000000000000002A
:20AEA0001CC40000000000000000000020C400000000000024C400000000000000000000E6
:20AEC00028C400002CC4000030C4000034C4000038C400003CC4000040C4000044C40000A2
:20AEE00048C400004CC4000050C4000054C4000058C400005CC4000060C4000064C4000082
:20AF000068C400006CC40000000000000000000000000000000000000000000000000000D5
:20AF2000000000000000000000000000000000000000000000000000000000000000000011
:20AF40000000000000000000000000000000000000000000000000000000000000000000F1
:20AF60000000000000000000000000000000000000000000000000000000000000000000D1
:20AF800000000000000000000000000003000000AED60000050000001ED700000700000029
:20AFA00076D6000009000000E6D600000E0000003ED600000000000056D700000F00000022
:20AFC0008ED700000000000000000000010000000100000060BE00000100000002000000E9
:20AFE00064BE0000010000000300000068BE000001000000040000006CBE000001000000D5
:20B000000500000070BE0000020000000300000074BE0000020000000100000078BE00008D
:20B0200002000000020000007CBE00001E0000000500000080BE00001E0000000C00000047
:20B0400080BE00001E0000000400000080BE00001E0000000600000080BE00001E000000D2
:20B060000300000080BE00001E0000000A00000080BE00001E0000000700000080BE0000C6
:20B080001E0000000B00000080BE00001E0000000100000080BE00001E00000008000000C6
:20B0A00080BE00001E0000000200000080BE00001E0000000900000080BE00001700000078
:20B0C0000100000080BE0000170000000200000084BE0000170000000300000084BE00007A
:20B0E000170000000500000084BE0000170000000600000080BE0000170000000700000079
:20B1000084BE0000170000000800000084BE0000170000000900000080BE00001700000017
:20B120001900000084BE0000170000001A00000084BE0000170000001B00000084BE0000CD
:20B14000170000001C00000084BE0000170000001D00000084BE0000170000001E000000CF
:20B1600084BE0000170000001F00000084BE0000170000001100000084BE00001700000094
:20B180001200000084BE0000170000001300000084BE0000170000001400000084BE000082
:20B1A000170000001500000084BE0000170000001600000084BE0000170000001700000084
:20B1C00084BE0000170000002800000084BE0000170000002900000084BE00001700000013
:20B1E0002A00000084BE0000170000002E00000084BE0000170000002C00000084BE0000D7
:20B20000170000002000000084BE0000170000002100000084BE0000170000002200000002
:20B2200084BE0000170000002300000084BE0000170000002400000084BE000017000000BC
:20B240002500000084BE0000170000002600000084BE0000170000002700000084BE000088
:20B26000030000000600000084BE0000030000000300000084BE0000030000000400000034
:20B2800084BE0000030000000700000084BE0000030000000A00000084BE000003000000CE
:20B2A0002000000084BE0000000000000000000000000000030000000900000088BE0000DA
:20B2C000170000000400000088BE0000170000002B00000088BE0000170000002D00000041
:20B2E00088BE000003000000020000008CBE0000150000000100000090BE00001500000040
:20B300000200000090BE0000000000000000000000000000010000000100000000000000DB
:20B32000010000000200000000000000010000000300000000000000010000000400000001
:20B3400000000000010000000500000004C500000200000003000000000000000200000017
:20B360000100000008C5000002000000020000000CC500001E000000050000000000000007
:20B380001E0000000C000000000000001E00000004000000000000001E000000060000003D
:20B3A000000000001E00000003000000000000001E0000000A000000000000001E00000026
:20B3C00007000000000000001E0000000B000000000000001E00000001000000000000001E
:20B3E0001E00000008000000000000001E00000002000000000000001E00000009000000E0
:20B4000000000000170000000100000000000000170000000200000010C50000170000000F
:20B420000300000010C50000170000000400000010C50000170000000500000010C5000053
:20B44000170000000600000000000000170000000700000010C500001700000008000000BD
:20B4600010C50000170000000900000000000000170000001900000010C5000017000000BB
:20B480001A00000010C50000170000001B00000010C50000170000001C00000010C50000AE
:20B4A000170000001D00000010C50000170000001E00000010C50000170000001F00000043
:20B4C00010C50000170000001100000010C50000170000001200000010C500001700000085
:20B4E0001300000010C50000170000001400000010C50000170000001500000010C5000063
:20B50000170000001600000010C50000170000001700000010C500001700000018000000F7
:20B5200000000000170000002800000010C50000170000002900000010C5000017000000CB
:20B540002A00000010C50000170000002D00000010C50000170000002E00000010C50000B9
:20B56000170000002B00000010C50000170000002C00000010C50000170000002000000065
:20B5800010C50000170000002100000010C50000170000002200000010C5000017000000A4
:20B5A0002300000010C50000170000002400000010C50000170000002500000010C5000072
:20B5C000170000002600000010C50000170000002700000010C5000003000000060000003D
:20B5E00004C50000030000000300000004C50000030000000400000004C5000003000000E0
:20B600000700000004C50000030000000900000004C50000030000000A00000004C50000AF
:20B62000030000002000000004C50000000000000000000000000000A0000000DCBD0000E5
:20B64000A1000000E0BD0000A2000000E4BD0000A3000000E8BD0000A4000000ECBD0000D4
:20B66000A5000000F0BD0000A6000000F4BD0000A7000000F8BD0000A8000000FCBD000064
:20B68000A900000000BE0000AA00000000000000AB00000000000000AC00000004BE000080
:20B6A000B000000008BE0000B20000000CBE0000B300000010BE0000B400000014BE000091
:20B6C000B500000018BE0000B60000001CBE0000BE00000000000000BF00000000000000D2
:20B6E0000000000000000000544300003430000030000000544300003635000030000000ED
:20B700005443000039300000300000005449000031300000303000000055000043340000CF
:20B720003030000000520000433400003030000000550000433900003030000000520000FD
:20B740004339000030300000005800004334000030300000005800004339000030300000AA
:20B7600000580000533100003030000030000000584C0000313000003030000000540000A4
:20B78000453900003030000000540000505300003130000030000000545000005333000019
:20B7A000303000000054000050530000383000003000000052450000533700003030000019
:20B7C000005500004553000039300000300000005245000053390000303000000058000008
:20B7E00045530000373000003000000074DB0000010000007ADB00000200000080DB000018
:20B800000300000086DB0000040000008DDB00000500000093DB00000500000099DB00006C
:20B82000060000009FDB000006000000A5DB000007000000ABDB000008000000B1DB0000E1
:20B8400009000000B8DB00000A000000BFDB00000B000000C5DB00000C000000CCDB00004A
:20B860000D000000D3DB00000E000000DADB00000F000000E1DB000010000000E8DB0000AC
:20B8800010000000EFDB00001100000000000000000000000000000002000000AC1A0000F5
:20B8A0000100000002000000B61A00000200000001000000B01A00000400000002000000E2
:20B8C000B21A00000500000002000000B41A00000600000002000000B61A000007000000E8
:20B8E00001000000B81A00000B00000001000000B91A00000980000002000000BA1A000037
:20B900000A80000002000000BC1A00000780000000000000000000000880000000000000B6
:20B920000000000000000000000000000000000011000000010000000D00000001000000E7
:20B940000080000001000000018000000100000002800000010000000380000001000000DD
:20B96000120000000100000009800000010000000A8000000100000004800000010000001A
:20B9800000000000000000000000000001000000020000000100000003000000010000009F
:20B9A0000400000001000000070000000100000008000000010000000A0000000100000066
:20B9C0000B000000010000000C0000000100000006800000010000000000000000000000C7
:20B9E00000000000010000000200000001000000030000000100000004000000010000003A
:20BA0000070000000100000008000000010000000A000000010000000B00000001000000FE
:20BA20000C0000000100000000000000000000000D00000001000000048000000100000066
:20BA4000000000000000000012010000000200000000000000080000177F00001100000022
:20BA600000010000010200000001000009020000290000000101000000C000003209000090
:20BA800004000000000200000300000000000000092100001101000000010000221D000021
:20BAA000000700000581000003400000000100000705000001030000400000000100000064
:20BAC00004030000090400003A030000540000007200000075000000650000002000000055
:20BAE0004600000069000000740000006E000000650000007300000073000000200000004A
:20BB0000540000006500000063000000680000006E0000006F0000006C0000006F000000E9
:20BB2000670000007900000020000000490000006E000000630000002E0000002C0300008E
:20BB40004E00000075000000630000006C00000065000000750000007300000020000000E6
:20BB6000430000006F0000006E00000074000000720000006F0000006C00000020000000C4
:20BB8000420000006F00000061000000720000006400000006000000FF09000001A100000D
:20BBA00001190000012900004015000000260000FF000000750800009540000081000000F4
:20BBC000190100002940000091000000C000000036DD000060DD000064DD00009EDD000085
:20BBE000010000001000000040000000000000000200000050000000300000000000000072
:20BC00000300000080000000100000000000000004000000900000002000000000000000DD
:20BC200005000000B0000000100000000000000006000000C0000000200000000000000059
:20BC400007000000E000000030000000000000000800000010010000400000000000000074
:20BC6000090000005001000030000000000000000A0000008001000080000000000000002F
:20BC80000B0000000002000080000000000000000000000000000000000000000000000017
:20BCA0000700000004000000481D00000800000003000000501D0000090000000000000093
:20BCC000000000000000000000000000000000000100000000000000000000000200000061
:20BCE00000000000000000000300000000000000000000000400000000000000000000003D
:20BD000000000000000000000000000000000000070000000100000086DE000008000000AF
:20BD20000000000000000000050000000000000000000000040000000000000000000000FA
:20BD400000000000000000000000000000000000000000000000000000020000FFFF0000E3
:20BD6000FFFF0000FF01000003FF0000FFFF0000FFFF0000FFFF0000040700000AFF0000B5
:20BD8000FFFF0000FF050000080B0000FFFF0000FFFF0000060900000CFF0000FFFF00007A
:20BDA000FFFF0000FFFF00000D0F0000FFFF0000FFFF0000FF0E0000100000000F00000043
:20BDC000A803000064000000CD050000C8000000B90700002C01000009090000900100002A
:20BDE000F8090000F4010000C20A000058020000A40B0000BC020000DA0C000020030000B1
:20BE0000A10E00008403000035110000E8030000D4140000000000000000000000000000D3
:20BE200028000000C8000000C800000000000000D0C40000D4C40000D8C400000000000082
:20BE400068420000204E0000E0AB000000000000DCC40000E0C40000E4C400000000000053
:20BE60000401000004010000401F000000000000E8C40000ECC40000F0C400000E0100003A
:20BE80000200000002030000050000002003000010000000300300001000000040030000DD
:20BEA000050000000000000000000000000100000200000010030000030000000AD1000089
:20BEC00001000000000000000000000001070000010E000001030000020900000305000033
:20BEE000040900000609000001000000020000000300000004000000060000000000000016
:20BF0000020300000F0000000200FA00004F7800305E8000001890000000E000040032007E
:20BF2000305E8000801890001E407800010001000080FA00000006000800FA0020079800B2
:20BF4000310798007C23020002000000000F7800BE009000110798002E009000E10F5000EB
:20BF60002C003200E10F500003003900E20F500020003200280037001E0078009080FB0054
:20BF8000104090000080FB004800DD0000807000E10F500003003200E30F50000D0032003B
:20BFA000130037001E009000100078000000D100614060008080FB001E00900010007800FE
:20BFC000614060000080FB00AECF020001000000070037001E0090001000900061406000D8
:20BFE0000080FB00ACD002000100000000000000090037008001EB00520020008000EB00BE
:20C0000080372E00C6150200020000000000000001003700000000000080FA0000000600A4
:20C020000000FA00605080001EFD0200010000000C2AEF00042AEF008001EB000001EB001E
:20C040008000EB0080372E00C6150200020000000080FA00000006000200FA00000F7800AE
:20C060009E0078005150880050508000F8CF0200010000005050800080007800C00020009F
:20C08000F50C07000080FA00000006000800FA00A423020002000000000F78009C23020003
:20C0A0000200000010079800B423020002000000200798000000EB00300798001E017800E4
:20C0C0009E0090002E009000E04990008381FB00704890000080FB004800DD0000807100E3
:20C0E00084C5020001000000300798003E0090000080FA00000006000000FA00E3FF0700F4
:20C1000051092000810F500008003C00005180001EFD020001000000202AEF000000EB006E
:20C12000081F0200020000000500370000518000C2072E00813E20006AFD02000100000087
:20C140000080FA00000006000000FA00005180000000E00003003A00CEFC020001000000AA
:20C160000051880000518000C2072E00813E20006AFD020001000000CC1E020002000000E7
:20C180000080FA00000006000200FA00000F78009E007800C15088000080FA00000006006D
:20C1A0000600FA0010079800210798007C23020002000000000F7800C0508000E60F500011
:20C1C00024003E00110020008008DD00C0052000008060000000E000200032001E009000C2
:20C1E0000000E0001F003A00488B0200010000000004A2000004E000030032005000200001
:20C2000095FF0700020037007000200092FF07001E00780020709000E24F500006003A00AB
:20C220009AFF070081072000810F500002003400CC1E0200020000008000EB000000EB005C
:20C24000050507002808070010C0B30026EAB70005003700000000000300370000000000D6
:20C2600001003700000000000080FA00000006000400FA0010079800607C2D00000F7800C9
:20C28000090037001E007800900078001E009000808F500002003A001E0078000B0037009F
:20C2A0009E007800648F40001E007800100078000000E000F3FF3A001E00780010009000D5
:20C2C0000000E000EFFF3A000000EB000080FA00000006000400FA00000F780011079800B6
:20C2E00010C0B30024EAB7000080FA00000006000400FA008C23020002000000000F78003E
:20C300001E0078009080FB00104090000080FB004800DD0000807000D5FF07001007980082
:20C32000246AEF001E0090000000E0001E003200CEFC020001000000D050880042002000CB
:20C340009E00900040BC200010CB020000000000305E8000100090000000E00005003200F1
:20C36000305E800090009000A0162E00010001000200370010C0B30024EAB700305E80001A
:20C38000100078000000E00004003200305E800090007800C0F92D000100010020230200BC
:20C3A0000200000001003700000000000080FA00000006000400FA00000F7800110798008E
:20C3C0009E007800715188009E009000815188008001EB00220020008000EB0080372E0077
:20C3E000C6150200020000000080FA00000006000000FA00305E8000200090000000E00046
:20C4000004003200305E8000A0009000A01D2E00010001000080FA00000006000200FA003F
:20C4200020032000000F7800305E8000400090000000E00006003200305E8000400190005D
:20C4400080518000800078007051800002000100305E8000500090000000E000040032004B
:20C46000305E80005000900000000100000F78008001EB00120020009E00780080372E00AD
:20C48000C6150200020000000080FA00000006000000FA008001EB00320020008000EB001A
:20C4A00080372E00C6150200020000000080FA00000006000600FA007C2302000200000095
:20C4C000100798008C23020002000000200798001E0090009080FB00104090000080FB0027
:20C4E0004800DD0000807000E10F500021003A006A95020001000000004F78002E00900005
:20C500009080FB00104090000080FB004800DD00008070000000E00002003A0010C0B30001
:20C52000004F78001E4078000004E0000300320040002000C8FE07000200370010002000AF
:20C54000C5FE07002E0090009080FB00104090000080FB004800DD00008070000000E000F8
:20C5600006003200000D2E00F295020001000000030037000000000001003700000000004C
:20C580000080FA00000006000C00FA009C23020002000000100798007C2302000200000000
:20C5A000200798008C23020002000000300798006906070040079800C90607005007980020
:20C5C0004E0090000000E00003003A000000EB00000F78000F003700CE009000B003200077
:20C5E000808F500006003E00C10320005E009000C0CB020001000000000F78000500370075
:20C60000CE0090005E009000C0CB020001000000000F78009E00780061518800BE0190001A
:20C620001E019000AE0090001E0078005ACB020001000000000F7800305E800040089000E2
:20C640000000E00007003200305E8000C00890001E007800010001009E007800600020002D
:20C660007D0B07000080FA00000006000200FA007C23020002000000000F78001E007800EF
:20C680009080FB00104090000080FB004800DD0000807000E60F500013003E001100200058
:20C6A0008008DD00C0052000008060000000E0000D003200DF0507008000780030002000FE
:20C6C000650B0700240607008000780040002000610B0700BE0607008000780020002000E4
:20C6E0005D0B0700000000000080FA00000006000600FA0010079800210798007C2302003B
:20C7000002000000000F7800205080000000E00003003200E20F5000220032006600370059
:20C720001E0090000000E00060003A00F0FE070020002000205088002DFF07001E007800DB
:20C740009080FB00104090000080FB004800DD0000807000E20F50000A003200E20F5000A0
:20C7600003003E00E10F5000090032000B003700E40F500003003200E60F500001003200CB
:20C7800006003700EEDD0200010000000400370048FF070051010700010037000000000074
:20C7A000450037001E009000E10F500004003A0020002000205088000DFF0700350037001A
:20C7C0001E009000E20F500020003A002000200020508800705180000000E0000C003A0071
:20C7E000305080000000E00009003A00CEFC020001000000305088003050800082242E006D
:20C8000081BB20006AFD0200010000000D003700705180000000E0000A00320030508000B1
:20C820000000E00007003200305080002AFE020001000000305080001EFD02000100000096
:20C84000062AEF00F5FE0700120037001E009000E30F50000B003A0032CABF000004A200E0
:20C860000004E0000B00320010C0B30032EAB7003100200020002000968A0200010000008D
:20C88000040037001E009000E50F500001003A0076FF070016CABF000004E00005003200FA
:20C8A000166AEF0038FF0700030037000000000001003700000000000080FA0000000600D9
:20C8C0000400FA00000F7800110798001E007800E10F500011003A003000200020508800BA
:20C8E000305080002AFE020001000000305080001EFD020001000000062AEF00CEFC020004
:20C9000001000000605088006050800002012E00813821006AFD0200010000000080FA00BF
:20C92000000006000000FA000040EB0076FD0700305E8000300090000000E000040032006E
:20C94000305E8000B000900000462E00010001000080FA00000006000000FA0024CABF00EC
:20C960000080FA00000006000200FA007C23020002000000000F78001E0078009080FB0070
:20C98000104090000080FB004800DD0000807000E10F500018003A00EFFF07000004E000BC
:20C9A0001200320020508000E20F50000F003A00C05080000000E0000A003200C05080007D
:20C9C000E30F500007003200C0508000E60F500006003A0002A00200010000000004E0003E
:20C9E0000200320010002000010037000000EB000040780007003700D7FF07000080FB0062
:20CA000000F0A7000000EA000000EA004F00DE00004078000080FA00000006000000FA004C
:20CA2000C0508000E50F500040003200E50F500003003E00E40F500006003200A5003700D4
:20CA4000E60F500059003200E70F500091003200A0003700F10A07000004A2000004E0009A
:20CA600012003200F90A07000004A2000004E0000E003200E6260200020000000004E000AA
:20CA80000A00320060002000BFFD0700142AEF00D0508000E2502E00813E20006AFD0200A2
:20CAA00001000000266AEF001F003700DB0A07000004A2000004E00015003200E30A0700EF
:20CAC0000004A2000004E00011003200E6260200020000000004A2000004E0000C003200B1
:20CAE0000000EB00A8FD07007C000700D05080002AFE0200010000001000200056FD0700C7
:20CB0000266AEF00CC1E02000200000006003700D0508000E2502E00813E20006AFD020023
:20CB2000010000006B0037006A003700E6260200020000000004E00004003A00488B0200AA
:20CB4000010000000004E00012003200400020008DFD0700488B0200010000000004A2003F
:20CB60000004E00005003200600020003AFD07008000EB000000EB0084030700D050800058
:20CB8000E2502E0081BB20006AFD02000100000050003700D0508000E2502E00813E200009
:20CBA0006AFD0200010000004A003700A05180000000E000070032003000200072FD07003A
:20CBC000D05080002AFE020001000000390107004000370002A00200010000000004A20087
:20CBE0000004E0000C0032008C0A07000004A2000004E00008003200940A07000004A20067
:20CC00000004E00004003200A05080000000E800A050880001003700142AEF00A050800055
:20CC2000E50F500005003200E6260200020000000004A2000004E00010003200142AEF0070
:20CC40007000200050FD07000040EB00AEFC07001000200000FD0700266AEF00D0508000C1
:20CC6000E2502E00813821006AFD020001000000CC1E02000200000016003700D050800035
:20CC8000E2502E00813E20006AFD02000100000010003700A05180000000E000060032001B
:20CCA00040B12E00C0260200020000001000200035FD0700030037000000EB0032FD0700A7
:20CCC00006000700D05080002AFE020001000000000000000080FA00000006000000FA0002
:20CCE0001000200070508800805080000000E00003003A00CEFC020001000000805088002A
:20CD000080508000E2682E00813E20006AFD0200010000000080FA00000006000400FA0084
:20CD20008C2302000200000010079800C05080000000E00005003200805080002AFE020070
:20CD4000010000000E2AEF003A00370070508000E10F500003003200E20F50000C00320006
:20CD600034003700200020007050880080508000E2682E00110020006AFD0200010000005D
:20CD800010C0B3003E95020001000000290037006A95020001000000004F78001E00900063
:20CDA0009080FB00104090000080FB004800DD00008070000000E00002003A0010C0B30059
:20CDC000004F78001E4078000004E0000B0032000040EB003E950200010000001000200064
:20CDE0007050880080508000E2682E00813E20006AFD0200010000000E0037005000200025
:20CE000095FC0700805080002AFE0200010000000E2AEF0050002000DBFC0700D0508000EA
:20CE2000E2502E00813E20006AFD020001000000000000000080FA00000006000200FA00CD
:20CE4000B423020002000000000F78001E007800A04090008180FB00304090000080FB00F3
:20CE60004800DD0000807000E60F50000D003E0086FC070061092000810F500001003400E5
:20CE8000B1FC0700305E8000E00090000000EB0001000100F05080002AFE02000100000088
:20CEA00005003700F0508000E2712E00813E20006AFD0200010000000080FA00000006002C
:20CEC0000600FA009C23020002000000000F78008C2302000200000010079800B4230200CD
:20CEE0000200000020079800B15180002E009000F20F200002816000C0419000E0C161009A
:20CF000002C1710042409800C808DE0050419000604161008140710051409800A151800025
:20CF20002E009000F20F20000281600090417800E0C1610002C1710002487800C808DE0040
:20CF4000104190006041610081407100114098001E0090009080FB00104090000080FB00BF
:20CF60004800DD0000807000EE0F5000100032001E0090009080FB00104090000080FB00F9
:20CF80004800DD0000807000E30F5000080032001E0090009080FB00104090000080FB00EC
:20CFA0004800DD00008070000000E0000C003A001E007800A04890008180FB003048900024
:20CFC0000080FB004800DD000080700080007800B05180003C0B020002000000C051880064
:20CFE0000080FA00000006000600FA0010079800210798008C23020002000000000F780008
:20D000001E0090000000E00027003200305E8000600090000000E00024003200A8FF070047
:20D020001E0078009080FB00104090000080FB004800DD0000807000EE0F50001000320050
:20D040001E0078009080FB00104090000080FB004800DD0000807000E30F50000800320043
:20D060001E0078009080FB00104090000080FB004800DD00008070000000E00005003A0080
:20D08000305E8000E0009000C05180000100010006003700305E8000E0009000B051800043
:20D0A0000100010001003700000000000080FA00000006000400FA00B423020002000000DD
:20D0C000000F78008C2302000200000010079800305E8000600090000000E0005500320002
:20D0E00077FF0700A05180000000E00044003A00E6260200020000000004E000400032007E
:20D100001E007800A04090008180FB00304090000080FB004800DD0000807000E50F500039
:20D1200010003600F05080000000E00003003A00CEFC020001000000F0508800F050800077
:20D14000E2712E00813E20006AFD020001000000305E8000E0009000500020000100010015
:20D1600034003700C9FB070061092000810F500001003400F4FB07001E0090009080FB002B
:20D18000104090000080FB004800DD0000807000EE0F5000100032001E0090009080FB00D7
:20D1A000104090000080FB004800DD0000807000E30F5000080032001E0090009080FB00CA
:20D1C000104090000080FB004800DD00008070000000E00005003A00305E8000E000900042
:20D1E000C05180000100010012003700305E8000E0009000B0518000010001000D0037000E
:20D20000F05080002AFE020001000000E6260200020000000004E000060032000000EB000C
:20D22000081F0200020000008000EB00100020006DFF07000080FA00000006000000FA003B
:20D2400010C0B300020007000080FA00000006000200FA00004F7800C0508000E30F50002D
:20D260008B003200E30F500005003E00E10F50000A003200E10F500048003E00E80037000B
:20D28000E60F5000B5003200E70F5000D5003200E40F500096003200E10037003E2702008B
:20D2A000020000000004A2000004E00020003200E6260200020000000004E0001C0032004E
:20D2C000A05180000000E00003003A0012CABF000004E00016003200126AEF0010C0B3000B
:20D2E00009FB070020002000A7FB0700D05080002AFE020001000000E05080000000E000DF
:20D3000003003A00CEFC020001000000E0508800E0508000E2912E00017D20006AFD0200F3
:20D3200001000000400020004BFB0700BC003700342AEF00362AEF00382AEF00266AEF00E0
:20D340003E270200020000000004E000090032000000EB008CFB0700100020003EFB07005C
:20D360005100200010002000968A020001000000AB0037005000200037FB070050002000EE
:20D3800081FB0700D0508000E2502E00813E20006AFD020001000000A1003700E6260200DB
:20D3A000020000000004E00016003200BF0807000004E00013003200A05180000000E000F7
:20D3C00004003200300020006FFB070039FF070007003700600020006BFB0700D05080004C
:20D3E000E2502E00813E20006AFD020001000000E05080001EFD0200010000001C2AEF0081
:20D4000022003700E6260200020000000004E0000A003200A50807000004A2000004E00045
:20D4200006003200E0508000E2912E00A10020006AFD020001000000140037003427020090
:20D44000020000000004E00008003200E6260200020000000004A2000004E00003003200DD
:20D460005000200048FB0700020037004000200045FB0700D0508000E2502E00813E200033
:20D480006AFD0200010000006500370064003700A05180000000E00013003A0034270200F0
:20D4A000020000000004E00008003200E6260200020000000004A2000004E000030032007D
:20D4C0005000200030FB070002003700400020002DFB0700D0508000E2502E00813E200003
:20D4E0006AFD020001000000F2FE07004C003700A05180000000E00007003200300020006E
:20D5000021FB0700D05080002AFE020001000000E8FE070042003700342702000200000058
:20D520000004E00039003200E6260200020000000004A2000004E00036003200500020002A
:20D5400011FB0700D0508000E2502E00813E20006AFD02000100000031003700A051800096
:20D560000000E000070032003000200006FB0700D05080002AFE020001000000CDFE07009D
:20D580002700370034270200020000000004E0000D003200E6260200020000000004A200F5
:20D5A0000004E0000800320050002000F6FA0700D0508000E2502E00813E20006AFD02009E
:20D5C0000100000016003700E6260200020000000004E00011003200400020009EFA0700C7
:20D5E0000F00370040B12E00C02602000200000010002000E4FA0700D05080002AFE0200FD
:20D6000001000000000000000500370000000000030037000000000001003700000000005B
:20D620000080FA00000006000400FA00000F7800110798001E00780000F0A7000000EA001E
:20D640000000EA004F00DE000040780000FF07000080FA00000006000600FA00881F780056
:20D6600010079800210798009C23020002000000000F7800488B0200010000000004E00037
:20D680000C0032002E0090000000E000090032009E8B020001000000004478007C8B020082
:20D6A000010000008840780090D0020001000000B30037001E009000E10F5000220032009A
:20D6C000E10F500003003900E20F50003F003200AB0037002E009000C03202000200000086
:20D6E000A05188001E007800804890008180FB00104890000080FB004800DD00008070004F
:20D7000080007800A0518000E80B020002000000C05188001E007800A04890008180FB0006
:20D72000304890000080FB004800DD000080700080007800C0518000980B02000200000021
:20D74000B0518800460037002E009000020D020002000000A0518800A0518000C032020014
:20D7600002000000A05188001E007800804890008180FB00104890000080FB004800DD00BC
:20D780000080700080007800A0518000E80B020002000000C05188001E007800A048900092
:20D7A0008180FB00304890000080FB004800DD000080700080007800C0518000980B0200A7
:20D7C00002000000B0518800250037001E007800A04890008180FB00304890000080FB00D5
:20D7E0004800DD0000807000800078002E0090003C0B020002000000C05188001E007800E4
:20D80000804890008180FB00104890000080FB004800DD000080700080007800C0518000B3
:20D82000540C020002000000A05188001E007800A04890008180FB00304890000080FB007E
:20D840004800DD000080700080007800C0518000980B020002000000B051880000000000FA
:20D860001E007800A04090008180FB00304090000080FB004800DD0000807000800078001E
:20D88000A0518000808F50003A003900C0508000E40F50002A003200E40F500007003E008E
:20D8A000E20F50001A003200E20F50001C003E000000E0000800320031003700E60F500079
:20D8C0001B003200E60F500025003900E70F50001F0032002A003700A05180000000E0000F
:20D8E00003003A0012CABF000004E0002300320040B12E00C02602000200000010002000DE
:20D9000021FA070030002000D3F907001C003700E6260200020000004DFE070018003700BE
:20D92000E62602000200000049FE070014003700E62602000200000045FE0700100037009D
:20D94000E62602000200000041FE07000C003700E6260200020000003DFE0700080037009D
:20D96000342AEF00382AEF00362AEF00000000000300370000000000010037000000000048
:20D980004F0478000080FA00000006000E00FA00881F78005007980061079800A42302005D
:20D9A00002000000200798009C2302000200000030079800B423020002000000400798005A
:20D9C0000000EB00000F78000000EB0010079800E6260200020000000004A2000004E000A1
:20D9E00082003A00488B0200010000000004E000090032009E8B020001000000004478008E
:20DA00007C8B0200010000008840780074D00200010000007E00370027CABF000004E0002C
:20DA200009003200D68B02000100000000447800C08B0200010000008840780074D00200B7
:20DA400001000000720037005E0090000000E00003003200E10F5000350032006C003700CF
:20DA60002E009000A04090008180FB00304090000080FB004800DD0000807000E10F4000BC
:20DA80005C0032002E0090009080FB00104090000080FB004800DD0000807000E10F40008F
:20DAA00056003200EE0090003E009000604190000281FB00704090000080FB004800DD0003
:20DAC00000007100808F50004E003C00EE0090003E009000404190000281FB0050409000F1
:20DAE0000080FB004800DD0000007100808F5000460035006E0090005C33020002000000AA
:20DB000060079800AE0090003E00900001017800800078006E009000ACC502000100000016
:20DB2000000F7800EE009000110798000B003700EE009000010F7800AE0090003E009000DC
:20DB400001017800800078001E00780084C50200010000001007980000000000305E8000B4
:20DB6000700090000000E000290032004E009000F10F20009E8060004049900060416100D3
:20DB800081407100414898009E007800C808DE0050499000604161008140710051489800E0
:20DBA0004E0090001E019000F10F20008100610000499000604161008140710001489800E8
:20DBC0009E009000C808DE0010499000604161008140710011489800305E8000F0009000CD
:20DBE0001E00780001000100090037000000000007003700000000000500370000000000D3
:20DC0000030037000000000001003700000000004F0478000080FA00000006000600FA0047
:20DC2000000F780011079800220798009E00780050002000080607001E0078000000E000DB
:20DC400003003200E10F5000080032000E003700AE00900070002000FF0507008000EB008C
:20DC600080002000FC050700070037008000EB0070002000F80507009E00900080002000F1
:20DC8000F5050700000000000080FA00000006000A00FA00400798000000EB00000F7800AE
:20DCA0009C23020002000000100798007C23020002000000200798008C23020002000000DD
:20DCC00030079800CE00900061518800BE0190001E019000AE0090004E0090005ACB02009C
:20DCE00001000000000F7800305E8000400890000000E0000B003200305E8000C008900033
:20DD00001E007800010001004E0190008000EB000000EB00C1FF07009E00780060002000D9
:20DD2000CD050700405080000000E00003003200405080002AFE0200010000000080FA0030
:20DD4000000006000000FA0010C0B30016EAB7004050800022EA2E00411F20006AFD020056
:20DD6000010000000080FA00000006000200FA00000F7800405080000000E00003003A0072
:20DD8000CEFC020001000000405088004050800022EA2E00410620006AFD02000100000083
:20DDA0000001EB009E007800100020009BFF07000080FA00000006000200FA00000F78008D
:20DDC000803E20009E007800808F500016003E00305E8000400890000000E0000B00320099
:20DDE000305E8000C00890001E007800010001000001EB008000EB000000EB0087FF070056
:20DE00009E0078006000200093050700405080000000E00005003200405080002AFE02006C
:20DE20000100000001003700000000000080FA00000006000600FA007C2302000200000086
:20DE4000100798009C23020002000000200798001E0090009080FB00104090000080FB007D
:20DE60004800DD0000807000E30F500013003200E30F500003003E00E20F500018003200F8
:20DE800029003700E40F500003003200E60F50001C003200240037002E009000A04090008E
:20DEA0008180FB00304090000080FB004800DD0000807000000F78001B0037002E0090003F
:20DEC000A04090008180FB00304090000080FB004800DD0000807000000F78001200370076
:20DEE0002E009000A04090008180FB00304090000080FB004800DD0000807000000F7800E1
:20DF0000090037002E009000A04090008180FB00304090000080FB004800DD000080700007
:20DF2000000F780000000000305E8000500890000000E00005003200305E8000D0089000D7
:20DF40001E00780001000100010037000000EB000080FA00000006000A00FA007C230200E1
:20DF600002000000200798009C2302000200000030079800B4230200020000004007980094
:20DF80002E0090009080FB00104090000080FB004800DD0000807000E30F50001A003200BA
:20DFA000E30F500003003E00E20F50002600320045003700E40F500003003200E60F50000C
:20DFC00031003200400037004E009000804890008180FB00104890000080FB004800DD00AD
:20DFE00000807000000F78003E0090009080FB00104090000080FB004800DD000080700061
:20E0000010079800300037004E009000804890008180FB00104890000080FB004800DD0030
:20E0200000807000000F78003E0090009080FB00104090000080FB004800DD000080700020
:20E0400010079800200037004E009000804890008180FB00104890000080FB004800DD0000
:20E0600000807000000F78003E0090009080FB00104090000080FB004800DD0000807000E0
:20E0800010079800100037004E009000804890008180FB00104890000080FB004800DD00D0
:20E0A00000807000000F78003E0090009080FB00104090000080FB004800DD0000807000A0
:20E0C00010079800000000009E0090001E007800D0390200020000000080FA000000060040
:20E0E0000400FA007C23020002000000000F7800B423020002000000100798001E007800D8
:20E100009080FB00104090000080FB004800DD0000807000E30F500012003200E30F5000BC
